:020000040800F2
:10000000705B0120D1010008EF260008FB190008F1
:10001000011D000885060008097B0008000000009B
:100020000000000000000000000000004D67000814
:100030005117000800000000970500083D690008FE
:10004000EB010008EB010008EB010008EB010008E0
:10005000EB010008EB010008EB010008EB010008D0
:10006000EB010008EB010008EB010008EB010008C0
:10007000EB010008EB010008EB010008EB010008B0
:10008000EB010008EB010008EB010008EB010008A0
:1000900089060008EB010008EB010008EB010008ED
:1000A000EB010008EB010008EB010008EB01000880
:1000B000EB010008EB010008EB010008EB01000870
:1000C000EB010008EB010008EB010008EB01000860
:1000D000EB010008657700088D770008EB01000848
:1000E000EB010008EB010008EB010008EB01000840
:1000F000EB010008EB010008EB010008EB01000830
:10010000EB010008EB010008356B0008EB0100086B
:10011000EB010008EB010008EB010008EB0100080F
:10012000EB010008EB010008EB010008EB010008FF
:10013000EB010008EB010008EB010008EB010008EF
:10014000EB010008DD060008EB010008EB010008E8
:10015000EB010008EB010008EB010008B57700088F
:10016000EB010008EB010008EB010008EB010008BF
:10017000EB010008EB010008EB010008EB010008AF
:10018000EB010008EB010008DFF80CD000F0AAF941
:1001900000480047C57C0008705B012072B67047BC
:1001A00062B67047EFF3108072B6704780F3108824
:1001B000704730BF704720BF7047B0FA80F070477B
:1001C00090FAA0F0B0FA80F0704790FAA0F0704773
:1001D0000648804706480047FEE7FEE7FEE7FEE7E1
:1001E000FEE7FEE7FEE7FEE7FEE7FEE7E56900085B
:1001F0008901000840EA01039B0703D009E008C910
:10020000121F08C0042AFAD203E011F8013B00F8DB
:10021000013B521EF9D27047D2B201E000F8012B27
:10022000491EFBD270470022F6E710B513460A4676
:1002300004461946FFF7F0FF204610BD2DE9FE4F9A
:1002400081EA030404F0004421F0004100944FF0DF
:10025000000B23F0004350EA01045ED052EA03048D
:100260005BD0C3F30A54C1F30A552C44A4F2F3340F
:100270000194A0FB0254C1F3130141F48011C3F3B4
:10028000130343F4801301FB024400FB034E840A72
:10029000970A44EA815447EA8357A4FB076802950A
:1002A0008D0A05FB07854FEA932C04FB0C542705A8
:1002B000029D4FEA065847EA1637B5EB08056EEB84
:1002C000070C870E920E47EA811742EA8312A7FBBA
:1002D0000201B6EB0B0164EB00042B0D43EA0C3377
:1002E0005E1844EB1C50DA465146E7FB0201C5F3A9
:1002F00013044FEA0B3343EA14534FEA0432019CD0
:1003000043EA0603A4F10C040294009CCDE900B476
:1003100000F09AF803B0BDE8F08F00200146F9E73D
:1003200000F0004230F000400AD0C10D01F56071CC
:10033000C0F3160042EA0151C2084007114370475A
:1003400000200146704701F0004330B421F0004125
:1003500050EA010206D00A0DA2F56072C1F3130142
:10036000002A02DC30BC00207047440F44EAC1047C
:10037000C100E01830BC00EBC25000F01FB8202ACA
:1003800004DB203A00FA02F1002070479140C2F1EC
:10039000200320FA03F3194390407047202A04DB1E
:1003A000203A21FA02F00021704721FA02F3D040EE
:1003B000C2F1200291400843194670470029A8BFA6
:1003C0007047401C490008BF20F00100704710B47E
:1003D000B0FA80FC00FA0CF050EA010404BF10BC33
:1003E000704749B1CCF1200421FA04F411FA0CF160
:1003F00018BF012121430843A3EB0C01CB1D4FEA99
:1004000000614FEA102042BF002010BC704700EB93
:10041000C35010440029A4BF10BC7047401C4900C1
:1004200008BF20F0010010BC704710B5141E73F116
:10043000000408DA401C41F1000192185B411A43A4
:1004400001D120F0010010BD2DE9F04D92469B46F0
:1004500011B1B1FA81F202E0B0FA80F22032904696
:10046000FFF78DFF04460F4640EA0A0041EA0B0100
:1004700053465A46084313D0114653EA010019D097
:10048000C8F140025046FFF789FF05460E46504628
:1004900059464246FFF773FF084305D0012004E0A8
:1004A00020463946BDE8F08D0020054346EAE07657
:1004B0002C4337430A986305E40AA0EB08000022A6
:1004C000FD0A44EA47540A3002D500200146E9E714
:1004D000010510196941DDE9084500196941BDE8C8
:1004E000F04DA2E7064C074D06E0E06840F001033E
:1004F00094E8070098471034AC42F6D3FFF748FE63
:100500005C8000087C80000870B58C1810F8015BD6
:1005100015F0070301D110F8013B2A1106D110F89C
:10052000012B03E010F8016B01F8016B5B1EF9D1A0
:100530002B0705D40023521E0DD401F8013BFAE726
:1005400010F8013BCB1A921C03E013F8015B01F891
:10055000015B521EF9D5A142D8D3002070BD000026
:1005600021484FF0FF010170002080F309881F48E7
:10057000016881F308881E484FF08051016062B61F
:10058000FEE71B484FF080510160704718484FF05C
:1005900080510160704772B6EFF3098050B11EF0D0
:1005A000100F08BF20ED108A734620E9F80F11499B
:1005B0000968086000B5104880475DF804EB0F48F3
:1005C0000F490A7802700B480E490A6802601068E9
:1005D000B0E8F80F9E461EF0100F08BFB0EC108A6E
:1005E00080F3098862B6704722ED00E074010020B4
:1005F00004ED00E06C010020A53500081201002088
:1006000013010020700100201FB5684606F02AF88B
:10061000019804B010BD000001790D4A1170114617
:1006200009785B290FD006DC582909D0592909D04F
:100630005A290BD105E0602907D0642906D103E0CF
:1006400004E003E002E001E000E000BF00BF70470B
:10065000B60100200179034A11704179024A1170F4
:1006600070470000B7010020B80100200179034A5B
:1006700011704179024A117070470000B9010020E1
:10068000BA01002000BFFEE700B589B004AA00212E
:10069000114800F000FE9DF8180004281AD10598B2
:1006A00000909DF8190008B1012000E000208DF8AD
:1006B00004009DF81A008DF80500002002900390B8
:1006C0009DF805200DF11B0102A8FFF793FD684678
:1006D00005F0B2FE09B000BD0064004000B593B063
:1006E0000EAA0121FE4800F0D6FD40F201210E982D
:1006F000884274D10EA8017CC07B41EA002000B280
:1007000000EE100AB8EEC00AF64880ED060A0EA800
:10071000817B407B41EA002000B200EE100AB8EE77
:10072000C00AF3EE030A80EE201AEE4880ED031AA9
:10073000008A68B9EB48408A50B90EA8007B9DF842
:10074000431040EA012000B2E649488208820CE0EA
:10075000E448408AE34908820EA8007B9DF84310D4
:1007600040EA012000B2DF494882DE4890ED000AED
:100770008DED050A90ED010A8DED060A90ED020A55
:100780008DED070A90ED030A8DED080A008AADF899
:100790002400D448408AADF82600D24890ED050ADE
:1007A0008DED0A0A90ED060A8DED0B0AC0690C90DA
:1007B000CC4890F820008DF83400142209A968462E
:1007C000FFF718FD05A80FC801F0E8F8C548D0EDFF
:1007D000010A30EE200A80ED010A62E3FFE740F2F1
:1007E00002210E98884274D10EA8017CC07B41EA98
:1007F000002000B200EE100AB8EEC00ABA4880ED40
:10080000060A0EA8817B407B41EA002000B200EE80
:10081000100AB8EEC00AF3EE030A80EE201AB248BE
:1008200080ED031A008A68B9AF48408A50B90EA813
:10083000007B9DF8431040EA012000B2AA4948829B
:1008400008820CE0A848408AA74908820EA8007BCD
:100850009DF8431040EA012000B2A3494882A24813
:1008600090ED000A8DED050A90ED010A8DED060A66
:1008700090ED020A8DED070A90ED030A8DED080A4E
:10088000008AADF824009848408AADF826009648C2
:1008900090ED050A8DED0A0A90ED060A8DED0B0A22
:1008A000C0690C90904890F820008DF83400142214
:1008B00009A96846FFF79EFC05A80FC801F06EF86D
:1008C0008948D0ED010A30EE200A80ED010AE8E205
:1008D000FFE740F203210E98884274D10EA8017CF4
:1008E000C07B41EA002000B200EE100AB8EEC00A58
:1008F0007E4880ED060A0EA8817B407B41EA0020FD
:1009000000B200EE100AB8EEC00ADFED790A80EE00
:10091000201A764880ED031A008A68B97348408A25
:1009200050B90EA8007B9DF8431040EA012000B2A8
:100930006E49488208820CE06C48408A6B49088204
:100940000EA8007B9DF8431040EA012000B26749E1
:100950004882664890ED000A8DED050A90ED010A87
:100960008DED060A90ED020A8DED070A90ED030A5F
:100970008DED080A008AADF824005C48408AADF885
:1009800026005A4890ED050A8DED0A0A90ED060AF8
:100990008DED0B0AC0690C90544890F820008DF83A
:1009A0003400142209A96846FFF724FC05A80FC8E3
:1009B00000F0C4FF4D48D0ED010A30EE200A80ED72
:1009C000010A6EE2FFE70E98B0F5017F74D10EA820
:1009D000017CC07B41EA002000B200EE100AB8EEB4
:1009E000C00A444880ED060A0EA8817B407B41EA9C
:1009F000002000B200EE100AB8EEC00ADFED3C0A9B
:100A000080EE201A3B4880ED031A008A68B9394805
:100A1000408A50B90EA8007B9DF8431040EA01209F
:100A200000B23449488208820CE03248408A314999
:100A300008820EA8007B9DF8431040EA012000B216
:100A40002C4948822B4890ED000A8DED050A90ED67
:100A5000010A8DED060A90ED020A8DED070A90ED70
:100A6000030A8DED080A008AADF824002148408A67
:100A7000ADF826001F4890ED050A8DED0A0A90EDAD
:100A8000060A8DED0B0AC0690C901A4890F82000F8
:100A90008DF83400142209A96846FFF7ABFB05A8BE
:100AA0000FC800F04BFF1348D0ED010A30EE200ACA
:100AB00080ED010AF5E1FFE740F205210E9888423A
:100AC0007ED10EA8017CC07B41EA002000B200EE7E
:100AD000100AB8EEC00A084880ED060A0EA80DE01C
:100AE00000680040C0190120E4190120081A012003
:100AF000000010422C1A0120501A0120817B407BFB
:100B000041EA002000B200EE100AB8EEC00A5FED24
:100B1000080A80EE201AE44880ED031A008A68B9BA
:100B2000E148408A50B90EA8007B9DF8431040EA86
:100B3000012000B2DC49488208820CE0DA48408A91
:100B4000D94908820EA8007B9DF8431040EA012095
:100B500000B2D5494882D44890ED000A8DED050ACF
:100B600090ED010A8DED060A90ED020A8DED070A5F
:100B700090ED030A8DED080A008AADF82400CA48FA
:100B8000408AADF82600C84890ED050A8DED0A0AA6
:100B900090ED060A8DED0B0AC0690C90C24890F8E2
:100BA00020008DF83400142209A96846FFF722FBC3
:100BB00005A80FC800F0C2FEBB48D0ED010A00E056
:100BC00004E030EE200A80ED010A6AE140F20621DD
:100BD0000E98884274D10EA8017CC07B41EA0020A7
:100BE00000B200EE100AB8EEC00AB04880ED060A66
:100BF0000EA8817B407B41EA002000B200EE100A83
:100C0000B8EEC00A5FED460A80EE201AA74880EDD4
:100C1000031A008A68B9A548408A50B90EA8007B1B
:100C20009DF8431040EA012000B2A04948820882A2
:100C30000CE09E48408A9D4908820EA8007B9DF8E2
:100C4000431040EA012000B298494882974890ED4D
:100C5000000A8DED050A90ED010A8DED060A90ED72
:100C6000020A8DED070A90ED030A8DED080A008A4D
:100C7000ADF824008D48408AADF826008B4890EDF1
:100C8000050A8DED0A0A90ED060A8DED0B0AC06982
:100C90000C90864890F820008DF83400142209A9A1
:100CA0006846FFF7A7FA05A80FC800F047FE7F487F
:100CB000D0ED010A30EE200A80ED010AF1E0FFE7F5
:100CC00040F207210E98884274D10EA8017CC07BA7
:100CD00041EA002000B200EE100AB8EEC00A7448E3
:100CE00080ED060A0EA8817B407B41EA002000B21D
:100CF00000EE100AB8EEC00A5FED830A80EE201AFB
:100D00006B4880ED031A008A68B96948408A50B977
:100D10000EA8007B9DF8431040EA012000B2644910
:100D2000488208820CE06248408A614908820EA825
:100D3000007B9DF8431040EA012000B25C494882E4
:100D40005B4890ED000A8DED050A90ED010A8DEDEE
:100D5000060A90ED020A8DED070A90ED030A8DED6B
:100D6000080A008AADF824005148408AADF82600F0
:100D70004F4890ED050A8DED0A0A90ED060A8DEDBB
:100D80000B0AC0690C904A4890F820008DF8340096
:100D9000142209A96846FFF72DFA05A80FC800F02C
:100DA000CDFD4348D0ED010A30EE200A80ED010A66
:100DB00077E0FFE70E98B0F5027F72D10EA8017CB4
:100DC000C07B41EA002000B200EE100AB8EEC00A73
:100DD000384880ED060A0EA8817B407B41EA00205E
:100DE00000B200EE100AB8EEC00A5FEDBF0A80EE56
:100DF000201A304880ED031A008A68B92D48408ACD
:100E000050B90EA8007B9DF8431040EA012000B2C3
:100E10002849488208820CE02648408A25490882F1
:100E20000EA8007B9DF8431040EA012000B2214942
:100E30004882204890ED000A8DED050A90ED010AE8
:100E40008DED060A90ED020A8DED070A90ED030A7A
:100E50008DED080A008AADF824001648408AADF8E6
:100E60002600144890ED050A8DED0A0A90ED060A59
:100E70008DED0B0AC0690C900E4890F820008DF89B
:100E80003400142209A96846FFF7B4F905A80FC871
:100E900000F054FD0748D0ED010A30EE200A80ED45
:100EA000010A13B000BD0000501A0120741A01207D
:100EB000981A0120BC1A012010B504460B48844240
:100EC00009D10121480605F0ADFB00214FF000706B
:100ED00005F0A8FB08E00121880605F0A3FB00212E
:100EE0004FF0806005F09EFB10BD000000640040E4
:100EF00010B50021837A012202FA03F13D4A1268FB
:100F000042F001023B4B1A603A4A1C3212688A4393
:100F1000384B1C331A60027BCAB9364A0C3212684D
:100F20008A43344B0C331A604288C38842EA034335
:100F3000304A4032847A42F834300288838842EA68
:100F400003432C4A4032847A02EBC4025360027B92
:100F5000012A19D1274A0C3212680A43254B0C3357
:100F60001A604288038842EA0343224A4032847A64
:100F700042F83430C288838842EA03431D4A403233
:100F8000847A02EBC4025360C27A3AB9194A121D3C
:100F900012688A43174B1B1D1A6006E0154A121D82
:100FA00012680A43134B1B1D1A60028932B9114A99
:100FB000143212688A430F4B14331A600289012AD3
:100FC00006D10C4A143212680A430A4B14331A60D1
:100FD000427B012A06D1074A1C3212680A43054B9C
:100FE0001C331A60034A126822F00102014B1A6096
:100FF00010BD00000066004010B58AB004464F499D
:1010000051F82400012105F0EDFA4D4B1A5D4D4BCE
:1010100033F814104C4B53F8240000F0F6FB484B07
:101020001A5D4A4B33F81410474B53F8240000F074
:10103000ECFB474830F81400464931F814100843D7
:10104000089002208DF824008DF8250000208DF8EE
:10105000260002208DF827003B4951F8240008A9FA
:1010600000F08BFB3C4951F82400012105F0CAFA3D
:101070003A4951F82400FFF71FFF00208DF81A00AD
:1010800001208DF81B0000208DF81C008DF81D003C
:101090008DF81E008DF81F008DF816008DF81700D2
:1010A00007208DF8180004208DF819000320ADF8F2
:1010B00014002A4951F8240005A900F062F80E2016
:1010C00000F062F92648005D8DF80E0000208DF8D2
:1010D0000F0001208DF810000020ADF80400ADF8DD
:1010E0000600ADF80800ADF80A001E4830F81400FC
:1010F000ADF80C0001208DF8110001A8FFF7F8FEF3
:101100004FF4A06001F030FB1748005D8DF800003F
:1011100000208DF801008DF8020001208DF80300F9
:10112000684601F0E5FA114A52F824100B4A52F8C9
:101130002400012200F01CF80AB010BD187E00083F
:10114000207E0008227E0008107E0008267E00080F
:10115000087E00080C7E0008007E0008F87D00086C
:101160002C7E00082E7E00082A7E0008347E0008AF
:101170001AB143690B43436102E043698B43436106
:10118000704730B5024600200023146824F00204A2
:101190001460146844F00104146000E05B1C54689F
:1011A00004F001041CB94FF6FF74A342F6D1546851
:1011B00004F001040CB900206CE08C79012C04D1FE
:1011C000146844F08004146003E0146824F0800480
:1011D0001460CC79012C04D1146844F040041460EC
:1011E00003E0146824F0400414600C7A012C04D14C
:1011F000146844F02004146003E0146824F0200410
:1012000014604C7A012C04D1146844F0100414606A
:1012100003E0146824F0100414608C7A012C04D1CB
:10122000146844F00804146003E0146824F008040F
:101230001460CC7A012C04D1146844F004041460C6
:1012400003E0146824F0040414608C78A407CD78BB
:1012500044EA05640D7944EA05444D7944EA0554AD
:101260000D886D1E2C43D461146824F001041460B1
:10127000002300E05B1C546804F001041CB14FF62D
:10128000FF74A342F6D1546804F001040CB10020AD
:1012900000E0012030BD10B500F5D87303EB011359
:1012A0001B6803F004031372137A53B900F5D87363
:1012B00003EB01131B6840F2FF7404EA53531360FD
:1012C00009E000F5D87303EB01131B686FF060446D
:1012D00004EAD303536000F5D87303EB01131B68D2
:1012E00003F00203537200F5D87303EB01135B683C
:1012F00003F00F03937200F5D87303EB01135B68DF
:101300001B0AD37400F5D87303EB01139B68D372E7
:1013100000F5D87303EB01139B681C0A147300F5E6
:10132000D87303EB01139B681C0C547300F5D8733E
:1013300003EB01139B681B0E937300F5D87303EB4B
:101340000113DB68D37300F5D87303EB0113DB687B
:101350001C0A147400F5D87303EB0113DB681C0C32
:10136000547400F5D87303EB0113DB681B0E937400
:1013700021B9C36843F02003C36003E0036943F06D
:101380002003036110BD00000B49096841F0010111
:10139000094A11601146096843F60E729143064AE4
:1013A00011601146096841EA00211160114609687F
:1013B00021F00101116070470066004010B502463F
:1013C0000020936803F08063B3F1806F00D110E0D8
:1013D000936803F00063B3F1006F01D1012008E0CE
:1013E000936803F08053B3F1805F01D1022000E0E5
:1013F0000420042874D002F5C07303EB00131B68AB
:1014000003F0010402F5C07303EB00131C600B7AB8
:101410007BB94B7A0C8843EA445302F5C07404EB61
:1014200000142468234302F5C07404EB0014236005
:1014300010E00B7A4C6843EAC4034C7A234302F56C
:10144000C07404EB00142468234302F5C07404EB59
:10145000001423608B7A03F00F038B7202F5C073C4
:1014600003EB00135B6823F00F0402F5C07303EB7A
:1014700000135C6002F5C07303EB00135B688C7AA9
:10148000234302F5C07404EB001463608B7B1C06DD
:101490004B7B44EA03440B7B44EA0323CC7A23438B
:1014A00002F5C07404EB0014A3608B7C1C064B7C1B
:1014B00044EA03440B7C44EA0323CC7B234302F538
:1014C000C07404EB0014E36002F5C07303EB001377
:1014D0001B6843F0010402F5C07303EB00131C60AA
:1014E00010BD0000F0B591B006460D46402101A8A0
:1014F000FEF799FE00240DE00A2095FBF0F100FBB9
:101500001150303001A908550A2095FBF0F505B9B6
:1015100002E0641C402CEFDB00BF07A000783070B5
:10152000002704E001A8C05D3055641E7F1C002C1C
:10153000F8DA11B0F0BD0000000000002DE9F04124
:1015400004460D46164600270B4850F8268000BF7B
:101550000DE000BF8021404606F059F90128F9D17D
:1015600014F8011B404606F0CBFA781CC7B2AF4214
:10157000EFDBBDE8F0810000487D000810B500F009
:101580001FF800F019F810BD10B5002400BF00BF0F
:10159000FEF708FE044600BF00BF1021054800F01A
:1015A000B1FB00BF00BF2046FEF700FE00BF00BF3A
:1015B00010BD0000009B002010B5FFF7E5FF10BD37
:1015C00010B500200249086000F00AF810BD0000C4
:1015D000B00000200149086070470000B000002002
:1015E00010B5FFF711F804460848006840F0807015
:1015F000064908600020064948600846006840F037
:10160000010008602046FFF7E5FF10BDFCED00E09B
:10161000001000E00149486870470000001000E039
:10162000B0EE402AF0EE602A32EE620AF0EE400A96
:1016300090ED000A20EE200AB0EE404A90ED010A3B
:1016400020EE200AF0EE404A90ED050A30EE240A22
:10165000F0EE401A90ED040AB4EEE10AF1EE10FA51
:1016600004D290ED040A80ED050A15E090ED040A1D
:10167000BFEE005A20EE050AB4EEE10AF1EE10FAD0
:1016800008DD90ED040ABFEE005A20EE050A80ED59
:10169000050A01E0C0ED051A90ED060A70EEC03AA9
:1016A00090ED020A20EE233AC0ED060A90ED050AFD
:1016B00030EE040A30EE031A90ED030AB4EEC10ACC
:1016C000F1EE10FA02D890ED030A704790ED030A8C
:1016D000BFEE005A20EE050AB4EEC10AF1EE10FA90
:1016E00006DD90ED030ABFEE005A20EE050AECE796
:1016F000B0EE410AE9E7000010B500220268134B82
:101700001A40CC680B6823434C6923438C692343FC
:10171000CC6923430C6A23434C6A23438C6A2343DA
:101720004C6B23438C6B23431A430260426922F0C3
:101730000702D1E90B3423431A4342610B6943602A
:101740004B6883608B68C36010BD00003F801CF055
:101750007047704710B504460B46002109E033F886
:101760003100A04203D103EBC100406810BD481C0A
:10177000C1B29142F3DB0020F8E7F0B50A46002140
:101780000023002400BF3DE0012505FA01F31568A0
:1017900005EA03049C4234D105684F000326BE408D
:1017A000B543056015794E00B540066835430560C0
:1017B0001579012D02D01579022D16D185684F00BB
:1017C0000326BE40B543856055794E00B540866816
:1017D00035438560456801268E40B54345604568C0
:1017E00096798E40B6B235434560C5684F000326F2
:1017F000BE40B543C560D5794E00B540C668354397
:10180000C560491C1029BFD3F0BDF0B500230024EA
:101810004D07ED0E02FA05F3CE1000F1200555F844
:1018200026504E07F70E0F26BE40B543CF1000F1ED
:10183000200646F82750CE1000F1200555F8265016
:1018400045EA0304CE1000F1200545F82640F0BD1E
:10185000418370470183704742694A404261704743
:101860002DE9F04706460F4617B92E4C2E4D08E0DD
:10187000012F02D12D4C2E4D03E0022F01D12D4C12
:101880002D4D94F8029094F80080EE2E0FD1B8F10F
:10189000040F0CD0B9F1FF0F03D000202070804658
:1018A00005E02878002802DD2878401E2870B8F16D
:1018B000050F31D2DFE808F00306111A27000120D6
:1018C00020702AE0042E02DA0020207004E0E67086
:1018D00000202870022020701FE06E70E07804283D
:1018E00001D1207001E00320207016E0E078401E56
:1018F000E0702978481C2870281D4654E078042898
:1019000000D1207009E0EE2E03D13946284604F0BC
:1019100039FE0020207000E000BF00BFA670BDE8C7
:10192000F08700009C010020AC140120A0010020E1
:1019300030150120A4010020B41501200FB4BDF919
:101940001210BDF91020881A011E01DB0A4600E0C2
:101950004A42B2F57A6F08DD011E01DB0A4600E05B
:101960004A4290FBF2F2A0EB423000EE100AB8EED1
:10197000C00ADFED070A20EE200A9FED061AC0EE2E
:10198000010A9FED051A80EE810A04B0704700003D
:101990000000B44300001042000000460FB4BDF93F
:1019A0001210BDF91020881A011E01DB0A4600E062
:1019B0004A42B2F57A6F08DD011E01DB0A4600E0FB
:1019C0004A4290FBF2F2A0EB423000EE100AB8EE71
:1019D000C00ADFED070A20EE200AB3EE031AC0EEBC
:1019E000010A9FED041A80EE810A04B070470000DE
:1019F0000000B44300000046704700BFFEE700004F
:101A00001CB50121022004F0EDFD01208DF8040039
:101A10008DF806004FF44070009001208DF807000B
:101A200000208DF8050069460848FFF7A6FE4FF430
:101A300000710648FFF70EFF4FF480710348FFF76F
:101A400009FF052000F048FE1CBD00000004024014
:101A50001CB50446124951F82400012104F0C2FDCE
:101A6000104830F81400009001208DF80400002088
:101A70008DF8060002208DF8050000208DF8070083
:101A8000094951F824006946FFF777FE054A32F804
:101A90001410054A52F82400FFF7DCFE1CBD0000BC
:101AA0003C7D0008347D00086800002010B500204F
:101AB000FFF7CEFF0120FFF7CBFF0220FFF7C8FFA3
:101AC00010BD000010B50446044A32F81410044A50
:101AD00052F82400FFF7BEFE10BD0000347D000860
:101AE0006800002010B50446044A32F81410044A75
:101AF00052F82400FFF7ACFE10BD0000347D000852
:101B00006800002010B50446044A32F81410044A54
:101B100052F82400FFF7A0FE10BD0000347D00083D
:101B20006800002007B52DED088B0898404200EEB4
:101B3000100AB8EEC00A5C48D0ED000A20EE200A78
:101B40005A4880ED000A9DED080AB8EEC00A5648D2
:101B5000D0ED000A20EE200A544880ED010A9FEDE6
:101B6000540A80ED020A9DED090AB8EEC00A4E48FB
:101B7000D0ED010A20EE200A4E4880ED000A9DEDCE
:101B8000090AB8EEC00A4848D0ED010A20EE200A42
:101B9000484880ED010A444890ED010A10EE101A01
:101BA0000846FEF7BDFB41EC1B0B9FED430B53ECCE
:101BB000102BFEF743FB41EC1A0BFEF7C4FB3D492B
:101BC00088600A98404200EE100AB8EEC00A364813
:101BD000D0ED020A20EE200A394880ED000A0A986A
:101BE000404200EE100AB8EEC00A2F48D0ED020ABB
:101BF00020EE200A324880ED010A0A98404200EEA9
:101C0000100AB8EEC00A2848D0ED020A20EE200AD9
:101C10002B4880ED020A254890ED000A0846D0EDD9
:101C2000000A30EE200A2648D0ED000A30EE200AE5
:101C3000B0EE408A1D4890ED010A0846D0ED010A39
:101C400030EE200A1E48D0ED010A30EE200AF0EEF8
:101C5000408A164890ED020A0846D0ED020A30EE9E
:101C6000200A1748D0ED020A30EE200AB0EE409A62
:101C700001201449096881F820001249496881F857
:101C800020001049896881F820000E48006880ED26
:101C9000028A0C484068C0ED028A0A48806880EDDC
:101CA000029ABDEC088B0EBD5C000020608700200E
:101CB000000000006C87002083C0CAA145B6DBBFCE
:101CC000788700204887002010B5012000F002F836
:101CD00010BD000070B50446002500BF00BFFEF730
:101CE00061FA054600BF00BF0448046000BF00BFA2
:101CF0002846FEF75BFA00BF00BF70BDB4000020AD
:101D000000BFFEE730B505460C46224600212846B6
:101D100000F026F830BD00000D480E490160014674
:101D2000416000218160C160016141618161C161E7
:101D300001620163C162416207498163C1634FF47B
:101D4000B841016441640146044A116070470000D3
:101D5000109B002048454150589B0020B8000020AF
:101D60002DE9F04103460C4617460FB9BDE8F08156
:101D700003B9FBE70025002202E02D022543521C97
:101D8000042AFAD3384603F0030C1946BCF1000FBD
:101D900008D0624603E001F8014B401E521C08B116
:101DA000042AF8D30E4601E020C6001F0428FBD207
:101DB000314602E001F8014B401E0028FAD100BF75
:101DC000D4E70000B7EE000A734880ED000A9FEDEB
:101DD000730A80ED010A9FED720A80ED020A9FED01
:101DE000710A80ED030A9FED6F0A80ED040A9FEDF2
:101DF0006C0A80ED050A9FED6A0A80ED060AB7EECF
:101E0000000A694880ED000A9FED640A80ED010A2E
:101E10009FED630A80ED020A9FED620A80ED030ADE
:101E20009FED600A80ED040A9FED5D0A80ED050AD2
:101E30009FED5B0A80ED060A9FED5C0A5C4880ED31
:101E4000000A9FED5C0A80ED010A9FED550A80EDC6
:101E5000020A9FED540A80ED030A9FED570A80EDB8
:101E6000040A9FED4F0A80ED050A9FED4D0A80EDB3
:101E7000060A9FED4E0A514880ED000A9FED4D0A7B
:101E800080ED010A9FED460A80ED020A9FED450AAA
:101E900080ED030A9FED480A80ED040A9FED400A99
:101EA00080ED050A9FED3E0A80ED060A9FED3F0A90
:101EB000434880ED000A9FED3F0A80ED010A9FED47
:101EC000380A80ED020A9FED370A80ED030A9FED84
:101ED0003A0A80ED040A9FED320A80ED050A9FED73
:101EE000300A80ED060A9FED310A364880ED000A7F
:101EF0009FED300A80ED010A9FED290A80ED020A6C
:101F00009FED280A80ED030A9FED2B0A80ED040A5D
:101F10009FED230A80ED050A9FED210A80ED060A58
:101F20009FED220A284880ED000A9FED220A80EDED
:101F3000010A9FED1B0A80ED020A9FED1A0A80ED4F
:101F4000030A9FED1D0A80ED040A9FED150A80ED3E
:101F5000050A9FED130A80ED060A9FED140A1B483F
:101F600080ED000A9FED130A80ED010A9FED0C0A37
:101F700080ED020A9FED0B0A80ED030A9FED0E0A29
:101F800080ED040A9FED060A80ED050A9FED040A24
:101F900080ED060A70470000701601200AD7233C26
:101FA0000000000000007A46181701206666A63F70
:101FB000881701208FC2F53C00806D45F81701207D
:101FC00068180120D81801202C190120801901203F
:101FD000B7EE000AD84880ED000A9FEDD80A80EDE0
:101FE000010A9FEDD70A80ED020A9FEDD60A80ED27
:101FF000030A9FEDD40A80ED040A9FEDD00A80ED1C
:10200000050A9FEDCE0A80ED060AB0EE000ACE4822
:1020100080ED000A9FEDC90A80ED010AB7EE080ABB
:1020200080ED020A9FEDC90A80ED030A9FEDC70A01
:1020300080ED040A9FEDC10A80ED050A9FEDBF0AFD
:1020400080ED060AB6EE000AC14880ED000A9FED59
:10205000BB0A80ED010A9FEDB90A80ED020A9FEDEF
:10206000BB0A80ED030A9FEDB90A80ED040A9FEDDB
:10207000B30A80ED050A9FEDB10A80ED060A9FEDD7
:10208000B50AB54880ED000A9FEDAC0A80ED010A63
:102090009FEDAA0A80ED020A9FEDAC0A80ED030ACB
:1020A0009FEDAE0A80ED040A9FEDA40A80ED050ABB
:1020B0009FEDA20A80ED060AB1EE040AA84880ED61
:1020C000000A9FED9E0A80ED010AB1EE0E0A80ED36
:1020D000020A9FED9E0A80ED030A9FEDA00A80EDA3
:1020E000040A9FED960A80ED050A9FED940A80EDA3
:1020F000060AB7EE080A9B4880ED000A9FED8F0A9A
:1021000080ED010A9FED980A80ED020A9FED8F0A8B
:1021100080ED030A9FED910A80ED040A9FED870A86
:1021200080ED050A9FED850A80ED060A9FED890A7C
:102130008E4880ED000A9FED810A80ED010A9FED37
:102140008A0A80ED020A9FED7F0A80ED030A9FED67
:10215000830A80ED040A9FED790A80ED050A9FED60
:10216000770A80ED060A9FED820A824880ED000A18
:102170009FED720A80ED010AB0EE0C0A80ED020AB2
:102180009FED720A80ED030A9FED740A80ED040A48
:102190009FED6A0A80ED050A9FED680A80ED060A48
:1021A0009FED730A744880ED000A9FED640A80ED8C
:1021B000010A9FED720A80ED020A9FED640A80ED2C
:1021C000030A9FED660A80ED040A9FED5C0A80ED2C
:1021D000050A9FED5A0A80ED060AB0EE0C0A68481F
:1021E00080ED000A9FED550A80ED010A9FED650A1A
:1021F00080ED020A9FED550A80ED030A9FED620A09
:1022000080ED040A9FED4D0A80ED050A9FED4B0A13
:1022100080ED060AB0EE0C0A5C4880ED000A9FEDE6
:10222000470A80ED010A9FED570A80ED020A9FEDF3
:10223000470A80ED030A9FED540A80ED040A9FEDE2
:102240003F0A80ED050A9FED3D0A80ED060AB0EEDB
:10225000040A4F4880ED000A9FED380A80ED010A1C
:102260009FED410A80ED020A9FED380A80ED030AD6
:102270009FED480A80ED040A9FED300A80ED050AC3
:102280009FED2E0A80ED060AB0EE040A424880ED6A
:10229000000A9FED2A0A80ED010A9FED330A80EDC6
:1022A000020A9FED2A0A80ED030A9FED2C0A80EDB9
:1022B000040A9FED220A80ED050A9FED200A80EDB9
:1022C000060AB0EE000A354880ED000A9FED1B0AB1
:1022D00080ED010AB7EE000A80ED020A9FED1B0AAD
:1022E00080ED030A9FED2B0A80ED040A9FED130A8F
:1022F00080ED050A9FED110A80ED060AB0EE000A96
:10230000274880ED000A9FED0D0A80ED010AB7EE27
:10231000000A80ED020A9FED0D0A80ED030A9FED91
:102320001D0A80ED040A9FED050A80ED050A9FED68
:10233000030A80ED060A70473816012000000000ED
:102340003333834000007A438C1601200000FA43A7
:10235000A8160120CDCC4C3FC416012000004843F4
:10236000E016012034170120333373405017012049
:10237000CDCC0C40A4170120C0170120CDCCCC40FF
:10238000141801209A99B940000096433018012092
:10239000841801200000FA44A0180120F41801203C
:1023A000481901209FED740A744880ED000AB7EEC9
:1023B000000A80ED010A9FED720A80ED020A9FED8E
:1023C000710A80ED030A9FED6F0A80ED040A9FED0C
:1023D0006C0A80ED050A9FED6A0A80ED060A9FED02
:1023E0006A0A6A4880ED000AB7EE000A80ED010A29
:1023F0009FED630A80ED020A9FED620A80ED030AF9
:102400009FED600A80ED040A9FED5D0A80ED050AEC
:102410009FED5B0A80ED060A9FED5D0A5D4880ED49
:10242000000AB7EE080A80ED010A9FED550A80ED1B
:10243000020A9FED590A80ED030A9FED580A80EDCC
:10244000040A9FED4F0A80ED050A9FED4D0A80EDCD
:10245000060A9FED530A534880ED000AB7EE000AC2
:1024600080ED010A9FED460A80ED020A9FED4B0ABE
:1024700080ED030A9FED490A80ED040A9FED400AB2
:1024800080ED050A9FED3E0A80ED060A9FED440AA5
:10249000454880ED000AB7EE000A80ED010A9FED85
:1024A000380A80ED020A9FED3C0A80ED030A9FED99
:1024B0003B0A80ED040A9FED320A80ED050A9FED8C
:1024C000300A80ED060A9FED360A384880ED000A92
:1024D000B7EE000A80ED010A9FED290A80ED020A9D
:1024E0009FED2D0A80ED030A9FED2C0A80ED040A72
:1024F0009FED230A80ED050A9FED210A80ED060A73
:102500009FED1D0A2A4880ED000AB7EE000A80ED13
:10251000010A9FED1B0A80ED020A9FED1F0A80ED64
:10252000030A9FED1E0A80ED040A9FED150A80ED57
:10253000050A9FED130A80ED060A9FED0F0A1D485C
:1025400080ED000AB7EE000A80ED010A9FED0C0A4B
:1025500080ED020A9FED100A80ED030A9FED0F0A3D
:1025600080ED040A9FED060A80ED050A9FED040A3E
:1025700080ED060A70470000000048435416012011
:102580000000000000401C460000FA43FC16012039
:10259000000016446C17012000007A4500409C455D
:1025A00000009643DC1701204C180120BC180120C4
:1025B00010190120641901202DE9F04385B004466B
:1025C0000D4616461F464FF004084FF000094FF421
:1025D0000070009000208DF808008DF80900082098
:1025E0008DF80A00200A8DF80B00E1B28DF80C106E
:1025F000290A8DF80D10E9B28DF80E10310A8DF808
:102600000F10F1B28DF81010390A8DF81110F9B2CF
:102610008DF8121004E069460748FEF7CFFE8046A9
:10262000B8F1040F05D14846411C1FFA81F9FF2873
:10263000F1D105B0BDE8F083006800402DE9F0431A
:1026400085B004460D4616461F464FF004084FF06D
:10265000000940F2FF10009000208DF808008DF86E
:10266000090008208DF80A00200A8DF80B00E1B25D
:102670008DF80C10290A8DF80D10E9B28DF80E10A6
:10268000310A8DF80F10F1B28DF81010390A8DF85B
:102690001110F9B28DF8121004E069460748FEF7F0
:1026A0008DFE8046B8F1040F05D14846411C1FFA43
:1026B00081F9FF28F1D105B0BDE8F0830068004042
:1026C00007E049F63F4101E04A1E91B20029FBDCD8
:1026D000401E0028F5D1704706E0272101E04A1E80
:1026E00091B20029FBDC401E0028F6D170477047EC
:1026F00070B5002100230F22C4781CB3174C246846
:1027000004F4E064C4F5E064C4F30721C1F10404F7
:10271000E3B20A4144789C40E1B2847814402143FA
:102720000C07210E0E4C05786155047804F01F0546
:102730000124AC4005786D11AD0005F1E025C5F828
:10274000004109E0047804F01F050124AC40054D68
:102750000678761145F8264070BD00000CED00E0CB
:1027600000E400E080E100E002490143024A116018
:10277000704700000000FA050CED00E07047000013
:1027800010B50348006810B101480068804710BDCB
:10279000D000002070B5044600F0A8F800204149A0
:1027A0000870414908704149087041490860414931
:1027B0000860414908704149087041490870414822
:1027C000006858B14048056845B13E48066803E0D6
:1027D000761E002028602D1D002EF9D100203B49D7
:1027E00008603B4908603B4908603B4908603B4939
:1027F00008603B4908603B4908603B49087001F0AC
:10280000E9FF02F0C9F8204601F088F9208800B1FC
:1028100070BD204601F05EFD208800B1F8E720463B
:1028200001F064FD208800B1F2E7204601F048FE87
:10283000208800B1ECE7204601F0FCFF208800B1C1
:10284000E6E7204602F066F9208800B1E0E720467E
:1028500002F088FC208800B1DAE7204601F0A6FCEF
:10286000208800B1D4E7204601F0CAFA208800B1E0
:10287000CEE7204603F0E6FB208800B1C8E72046FB
:1028800002F0B4FB208800B1C2E7204603F036FC1A
:10289000208800B1BCE701F067F8FFF76FFF00BFC9
:1028A000B6E70000E4000020E50000201E01002043
:1028B0006C01002070010020120100201301002093
:1028C00014010020787E0008747E0008C4000020F7
:1028D000C8000020CC000020D0000020D400002040
:1028E000D8000020DC0000204A01002006480068D3
:1028F0000649096800EB8100054908600846006840
:1029000020F0070008607047747E0008787E000899
:102910007401002010B500242D480078012800D053
:1029200010BD00BFFDF73EFC044600BF29480078FB
:1029300028B900BF2046FDF739FC00BFF0E7254865
:102940000078401E2349087008460078002805DDFD
:1029500000BF2046FDF72AFC00BFE1E71E480078D3
:10296000002805DD00BF2046FDF720FC00BFD7E7AB
:1029700001F01CFF194908700846007800EB400080
:10298000174951F8200017490860084600681649A1
:102990000968884205D100BF2046FDF707FC00BF4B
:1029A000BEE710480068D0F89000401C0D49096847
:1029B000C1F890000D480068401C0C490860FDF704
:1029C000E5FD00BF2046FDF7F1FB00BF00BFA7E714
:1029D000E5000020E40000201E010020130100207B
:1029E0006C0F0120700100206C01002040010020CC
:1029F00010B500241F480078002800DD10BD1E48D7
:102A00000078002800DDF9E700BFFDF7CBFB0446A6
:102A100000BF01F0CBFE194908700846007800EBB2
:102A20004000174951F82000164908600846006820
:102A300015490968884205D100BF2046FDF7B6FB5D
:102A400000BFDBE70F480068D0F89000401C0D493C
:102A50000968C1F890000D480068401C0B490860E7
:102A6000FDF78FFD00BF2046FDF7A0FB00BF00BFB4
:102A7000C4E70000E40000201E0100201301002034
:102A80006C0F0120700100206C010020400100202B
:102A900070B50446002517480078002803DD46F687
:102AA0006250208070BD14480078012803D045F69C
:102AB00089602080F6E711480078FA2803DB45F2A8
:102AC00009202080EEE700BF00BFFDF76BFB054645
:102AD00000BF00BF09480078401C0849087000BFCB
:102AE00000BF2846FDF762FB00BF00BF002020802A
:102AF00000BFD7E7E4000020E50000201E01002011
:102B000070B5044600251F480078002803DD46F60E
:102B10006550208070BD1C480078012803D045F620
:102B200089602080F6E71948007818B946F66450A5
:102B30002080EFE700BF00BFFDF734FB054600BF74
:102B400000BF12480078401E1049087008460078FF
:102B500000280ADD00BF00BF2846FDF727FB00BFA5
:102B600000BF46F663502080D4E700BF00BF284670
:102B7000FDF71CFB00BF00BFFFF73AFF00202080DD
:102B800000BFC7E7E4000020E50000201E01002090
:102B900010B5044612480078E8B901F007FE114963
:102BA000087008460078104908700E48007800EB5D
:102BB00040000E4951F820000D49086008460068A1
:102BC0000C490860012006490870FDF7C9FC43F66E
:102BD0009920208002E045F68A60208010BD000028
:102BE000E500002013010020120100206C0F0120DD
:102BF000700100206C0100202DE9F04107464FF0E4
:102C0000000800BF00BFFDF7CDFA804600BF00BF3F
:102C100000203B4908603B4908803B4908803B490C
:102C200008603B4908603B4908603B49088100BF98
:102C300000BF4046FDF7BAFA00BF00BF00BF00BFAB
:102C4000FDF7B0FA804600BF00BF3448046800BFFB
:102C500000BF4046FDF7AAFA00BF00BF20E000BF5A
:102C600000BFFDF79FFA804600BF00BF002044F878
:102C7000780F2063A061A082E0826062A062FEF70C
:102C8000C9FC2062783C04F164060020B081D4F8CD
:102C9000B84000BF00BF4046FDF788FA00BF00BF44
:102CA000002CDCD100BF00BFFDF77CFA804600BFDE
:102CB00000BF1B48056800BF00BF4046FDF776FA1D
:102CC00000BF00BF12E000BF00BFFDF76BFA8046F7
:102CD00000BF00BF05F120060020B081AD6900BF34
:102CE00000BF4046FDF762FA00BF00BF002DEAD1E9
:102CF00003F084F803F0FEFA00203880BDE8F0818C
:102D0000F8000020F20000202A0100203C010020F1
:102D1000500100205C010020600F012044010020D0
:102D20001801002010B50348006810B10148006880
:102D3000804710BDD40000202DE9FF4F87B0044626
:102D40009046DDE91BA5DDE91496179F002003904E
:102D500083480078002805DD47F24A1028800BB030
:102D6000BDE8F08F1CB947F2AD102880F7E7B8F145
:102D7000000F03D147F24F102880F0E71EB946F646
:102D80002F602880EBE777480068874203D246F639
:102D900030602880E3E71698B84203D346F63160E6
:102DA0002880DCE7B9F1400F03D346F27320288076
:102DB000D5E7B9F1000F06D16B48844203D046F243
:102DC00073202880CBE7B9F13F0F06D167488442D2
:102DD00003D046F273202880C1E7204602F0D2F9E2
:102DE000002028800AF0010090B10AF0020078B1BA
:102DF00005960020069008E00021059801600598DE
:102E0000001D05900698401C06900698B842F3D322
:102E1000169806EB80000490CDE9007A32464046D1
:102E2000049B0A9900F026FB0590C4F828800A98B4
:102E3000E0620898206284F8379005982060049832
:102E4000A060199860651A9860606662A763A4F82C
:102E50003CA04FF0000B08E0002104F17C0040F89A
:102E60002B100BF1010000F0FF0BBBF1000FF3D0B2
:102E700004F16400189901F099FA204600F080F8F6
:102E800000BF00BF00BFFDF78DF9039000BF00BF7A
:102E900037480078401C3649087000BF00BF0398CF
:102EA000FDF784F900BF00BF00BF94F8370001F0C0
:102EB0009DFC204601F0B8FD204602F019F92D488E
:102EC0000088401C2B4908802B48007801282DD011
:102ED00000BF00BF00BFFDF765F9039000BF00BF52
:102EE00023480078401E2249087008460078A0B99F
:102EF00022480088002809DD00BF00BF0398FDF7C5
:102F000055F900BF00BF01F0DBFD0DE000BF00BFC1
:102F10000398FDF74BF900BF06E000BF00BF039820
:102F2000FDF744F900BF00BF00BF18E700BF00BFB6
:102F300000BFFDF737F9039000BF00BF0C480078D1
:102F4000401E0B49087000BF00BF0398FDF72EF923
:102F500000BF00BF00BFFFF74BFD00BFFFE6000052
:102F6000E4000020A47E0008A00E0120E00D012056
:102F70001E01002048010020E5000020F000002094
:102F800010B504460348006818B120460149096895
:102F9000884710BDC400002070B504460D460026C9
:102FA00067480078002803DD47F24E10288070BD86
:102FB0006448844203D147F24C102880F7E7624806
:102FC000844203D147F24D102880F0E77CB900BF5E
:102FD00000BFFDF7E7F8064600BF00BF5B48046886
:102FE00000BF00BF3046FDF7E1F800BF00BF00BFE3
:102FF00000BF00BFFDF7D6F8064600BF00BF54482B
:103000000078401C5249087000BF00BF3046FDF7F1
:10301000CDF800BF00BF00BF94F8360008282DD2BD
:10302000DFE800F004090E10080A0F11204601F035
:1030300019FD54E053E000BF204602F0C3FE4EE00D
:1030400000BF00BF00BF204602F0BCFE94F8340071
:10305000082810D2DFE800F004070508090A0B066B
:1030600000BF00BF08E000BF00BF00BF00BF204698
:1030700001F0EDFA00E000BF00BF30E000BF00BF8C
:1030800000BFFDF78FF8064600BF00BF304800784C
:10309000401E2F49087008460078A0B92D480088C6
:1030A000002809DD00BF00BF3046FDF77FF800BFF4
:1030B00000BF01F005FD0DE000BF00BF3046FDF789
:1030C00075F800BF06E000BF00BF3046FDF76EF8A0
:1030D00000BF00BF00BF46F62D60288067E700BF35
:1030E00004F1640001F040F9204600F037F8204672
:1030F00002F016F818480088401E1749088020463C
:1031000002F040F8FF2084F8360000BF00BF00BF87
:10311000FDF748F8064600BF00BF0D480078401E86
:103120000B49087000BF00BF3046FDF73FF800BFF5
:1031300000BF00BF00202880FFF75AFC00BF36E721
:10314000E4000020E00D0120A00E01206C01002011
:103150001E010020F00000204801002010B50446A8
:103160000348006818B1204601490968884710BD26
:10317000C800002010B504460348006818B1204676
:1031800001490968884710BDCC0000202DE9F047AF
:1031900080460E4614461D464FF000097D480078D3
:1031A000002805DD46F2AE1028800020BDE8F0873B
:1031B0001EB1B6F5004F02D100E000BF04E045F6B5
:1031C000256028800020F1E700BF0CB100202060BE
:1031D00000BF00BFFCF7E6FF814600BF00BF6E489E
:1031E0000068406CA8B36C480068406C401E6A4997
:1031F0000968486468480068476C1CB16648006804
:10320000006C2060FEF706FA63490968096C401AF1
:1032100061490968C1F8A4005F480068D0F8A800B7
:103220005D490968D1F8A410884207D25A4800685D
:10323000D0F8A40058490968C1F8A80000BF00BF31
:103240004846FCF7B3FF00BF00BF00202880384687
:10325000ACE7FFE706F4004058B100BF00BF4846A6
:10326000FCF7A4FF00BF00BF46F2B010288000208A
:103270009CE74A48007800280BDD00BF00BF4846A5
:10328000FCF794FF00BF00BF46F663502880002083
:103290008CE700BF41480078401C4049087000BFDF
:1032A00000BF4846FCF782FF00BF00BF00BF434697
:1032B00007220021084601F00FF900BF00BF00BF40
:1032C000FCF770FF814600BF00BF34480078401E05
:1032D0003249087000BF00BF4846FCF767FF00BFD7
:1032E00000BF00BFFFF784FB00BF00BFFCF75AFF21
:1032F000814600BF00BF2848006890F8350020B123
:10330000012826D0032834D12CE0FCB122480068E3
:10331000006C2060FEF77EF91F490968096C401AAD
:103320001D490968C1F8A4001B480068D0F8A8002E
:1033300019490968D1F8A410884207D216480068D4
:10334000D0F8A40014490968C1F8A800002028801A
:1033500013E01CB110480068006C206046F2A91010
:1033600028800AE00CB10020206047F2D920288094
:1033700003E046F62E60288000BF00BF06480068C4
:10338000476C00BF00BF4846FCF710FF00BF00BFFE
:1033900038460BE7E40000206C0100201E010020ED
:1033A0002DE9F04705460E4617461C464FF0000A29
:1033B0002E480078002804DD47F259102080BDE82F
:1033C000F0871EB946F2D5202080F8E71FB946F2F3
:1033D000D5202080F3E700BF00BFFCF7E3FE824664
:1033E00000BF00BF0DB922480568286868B900BF52
:1033F00000BF5046FCF7DAFE00BF00BF002030607F
:10340000386047F252102080D9E795F83C0000F070
:10341000010068B900BF00BF5046FCF7C7FE00BFFF
:1034200000BF00203060386047F254102080C6E7AB
:1034300000BF00BF5046FCF7B9FE00BF00BF4FF011
:103440000008D5F8249003E009F1040908F1010807
:10345000D9F800000028F7D0C6F80080A86BA0EBD0
:10346000080038600020208000BFA8E7E4000020AA
:103470006C010020F0B50446DDE9055602EB85003D
:1034800020F007004FF0807C071F3846C7F800C0C7
:10349000071F38463C60DFF8A8C0071F3846C7F84A
:1034A00000C04FF0123C071F3846C7F800C04FF06D
:1034B000033C071F3846C7F800C04FF0023C071F07
:1034C0003846C7F800C0071F38463B60071F38461C
:1034D00039604FF0113C071F3846C7F800C04FF065
:1034E000103C071F3846C7F800C04FF0093C071FC3
:1034F0003846C7F800C04FF0083C071F3846C7F8E9
:1035000000C04FF0073C071F3846C7F800C04FF017
:10351000063C071F3846C7F800C04FF0053C071FA0
:103520003846C7F800C04FF0043C071F3846C7F8BC
:1035300000C06FF0020C071F3846C7F800C0F0BD8E
:10354000B55500087FB505460C461248854203D1A3
:1035500047F25B1020807FBD0F48854203D147F2C0
:103560005C102080F7E70D48007800280BDD002074
:1035700000900190034602462946CDE9020408481E
:1035800000F076FCE7E72146284602F081FA00BF0A
:10359000E1E70000E00D0120A00E0120E400002082
:1035A0005453555310B51548006810B113480068BE
:1035B0008047FEF72FF80446114800681149096852
:1035C000884215D00E480068D0F89800201A0C499F
:1035D0000968C1F894000A480068D0F89C000849BE
:1035E0000968D1F89410084405490968C1F89C009D
:1035F00004480068C0F8984010BD0000D8000020C2
:103600006C010020700100202DE9F04105460E46B6
:10361000144600273F480078002804DD47F2752053
:103620002080BDE8F0813C480078002803DD46F6A4
:1036300063502080F5E736B1022E05D0042E0AD063
:10364000082E09D101E000BF00BF1DB947F27E205E
:103650002080E6E704E003E045F625602080E0E70F
:1036600000BF00BF00BF00BFFCF79CFD074600BFC6
:1036700000BF29480078401C2749087000BF00BFE0
:103680003846FCF793FD00BF00BF00BF012023496F
:10369000096881F836002346324629461F480068EB
:1036A00002F0B2FA2088A8B100BF00BF00BFFCF74B
:1036B00079FD074600BF00BF17480078401E164935
:1036C000087000BF00BF3846FCF770FD00BF00BFA8
:1036D00000BFA6E71148006801F0C4F900BF00BFB1
:1036E00000BFFCF75FFD074600BF00BF0A48007837
:1036F000401E0949087000BF00BF3846FCF756FD60
:1037000000BF00BF00BFFFF773F90020208000BF9B
:1037100087E70000E40000201E0100206C0100206B
:103720002DE9FF5F05460E4617469846DDE90EA4D3
:103730000020009072480078002804DD47F27520D0
:103740002080BDE8FF9F6F480078002803DD46F623
:1037500063502080F5E70AF00E0BBBF1000F09D093
:10376000BBF1020F07D0BBF1040F10D0BBF1080F63
:103770000ED101E000BF00BFB8F1000F06D12FB994
:1037800026B91DB947F27E202080DAE704E003E085
:1037900045F625602080D4E700BF2AF01E0008B15E
:1037A000012000E0002003900398012803D145F692
:1037B00025602080C5E7CAF3001002900298C0B9C6
:1037C000B8F57A7F03D347F27B202080B9E73B2FFF
:1037D00003DD47F27A202080B3E73B2E03DD47F27A
:1037E00079202080ADE7632D12DD47F2782020801C
:1037F000A7E742F20F70864203DD47F2792020806E
:103800009FE7B5F57A7F03DB47F27820208098E7C1
:103810003D48D0F800904FF4FA70B0FBF9F0404406
:1038200000FB09F04FF47A71B0FBF1F14FF46160E5
:103830006843C6EB061200EB8200384400FB091017
:1038400001900198002856D000BF00BF00BFFCF7D0
:10385000A9FC009000BF00BF2A480078401C2949FD
:10386000087000BF00BF0098FCF7A0FC00BF00BFBD
:1038700000BF01202549096881F8360023465A46D1
:1038800022480199006802F0BFF92088A8B100BF62
:1038900000BF00BFFCF786FC009000BF00BF1948C6
:1038A0000078401E1749087000BF00BF0098FCF761
:1038B0007DFC00BF00BF00BF43E71448006801F073
:1038C000D1F800BF00BF00BFFCF76CFC009000BF48
:1038D00000BF0C480078401E0A49087000BF00BFB6
:1038E0000098FCF763FC00BF00BF00BFFFF780F843
:1038F0000020208002E047F27E20208000BF20E7E9
:10390000E40000201E010020A87E00086C010020B9
:1039100010B586B000F01EF8FDF77CFE044605A841
:1039200000210091CDE9011403900748007800EBD5
:103930004000064A02EB800100231A46044800F0CA
:1039400097FA06B010BD0000120100206C0F012094
:103950005449434B10B50348006810B10148006852
:10396000804710BDDC000020254A2649264A274A08
:103970002749284A2848294A294A2A4A2A4A2B48B4
:103980002B482C482C4A2D482D4A2E482E4A2F4889
:103990002F4830483048314A314A324A3248334A57
:1039A000334A34483448354835483648364837482D
:1039B000374A384A384A394A39483A483A483B4AF5
:1039C0003B4A3C4A3C483D483D483E493E483F4AC8
:1039D0003F4A404A404A414A414A424A4248434A91
:1039E000434A44484448454A454A4648464A474A65
:1039F00047484848484800BF00BF00BF7047000024
:103A0000EC7E000854800008ED7E0008EE7E000881
:103A1000F07E0008F47E0008F87E0008F57E0008BD
:103A2000207F0008217F0008227F0008247F0008F3
:103A3000267F0008287F00082A7F00082C7F0008C6
:103A40004C7F00084E7F0008507F0008527F00081E
:103A5000547F0008567F0008587F0008847F0008C4
:103A6000857F0008867F0008887F00088A7F00081D
:103A70008B7F00088C7F00088E7F0008907F0008F5
:103A8000927F0008947F0008967F0008987F0008C6
:103A9000C87F0008C97F0008CA7F0008CB7F0008E4
:103AA000CC7F0008CE7F0008D07F0008F87F000898
:103AB000F97F0008FA7F0008FB7F0008FC7F000800
:103AC000FE7F0008008000080480000805800008D0
:103AD00006800008078000080880000809800008A8
:103AE0000A8000080B8000080C8000080E80000887
:103AF0000F80000810800008128000081480000861
:103B000015800008188000084C8000084D800008CF
:103B10004E80000850800008528000080021034AAF
:103B20001160034A1180018070470000FC000020F2
:103B3000000100202DE9F04F85B0044689469246E9
:103B40009B46DDF838800020009000BF00BFFCF7E6
:103B500029FB009000BF00BFBAF1000F0AD0BAF1F4
:103B6000010F0DD0BAF5004F05D06FF4004050445E
:103B700060B906E000BF206A40EA0900206214E054
:103B800000BF206A20EA090020620EE000BF00BFEB
:103B90000098FCF70BFB00BF00BF45F62560A8F8B6
:103BA0000000002005B0BDE8F08F00BFC4F824B0CD
:103BB00004F1080001900198008958B900BF00BFC6
:103BC0000098FCF7F3FA00BF00BF0020A8F800003F
:103BD000206AE7E700BF61480078401C5F49087031
:103BE00000BF00BF0098FCF7E1FA00BF00BF00BFB4
:103BF00001980768BD687FE07868029095F88800B2
:103C000000F00F0003900398012821D002282ED045
:103C1000042802D0082836D10EE0206AD5F880109A
:103C200000EA0106D5F88000B04204D15A46314678
:103C3000284600F097F859E0206AD5F8801000EA8D
:103C4000010626B15A463146284600F08BF84DE071
:103C5000D5F88000216A20EA0106D5F88000B0423C
:103C600004D15A463146284600F07CF83EE0D5F8AB
:103C70008000216A20EA010626B15A4631462846CC
:103C800000F070F832E000BF00BF00BFFCF78AFA16
:103C9000009000BF00BF31480078401E2F490870D7
:103CA00008460078A0B92E480088002809DD00BF2A
:103CB00000BF0098FCF77AFA00BF00BF00F000FFD9
:103CC0000DE000BF00BF0098FCF770FA00BF06E0EF
:103CD00000BF00BF0098FCF769FA00BF00BF00BF3B
:103CE00043F6FF20A8F8000000205BE700BF029F1A
:103CF0000FB1BD6800E00025002D7FF47DAF00BF4F
:103D000000BF00BFFCF74EFA009000BF00BF134891
:103D10000078401E1149087000BF00BF0098FCF7F2
:103D200045FA00BF00BF00BF0AF4004008B9FEF723
:103D30005FFE00BF00BFFCF735FA009000BF00BF78
:103D4000206A049000BF00BF0098FCF72FFA00BF64
:103D500000BF0020A8F80000049823E71E010020FF
:103D6000F000002070B504460E4615463434266532
:103D7000002060702070E560A078343C082816D2DE
:103D8000DFE800F0040508090706101100BF00BFB6
:103D900000BF0DE000BF204601F05EFB002084F86C
:103DA000360005E000BF042084F8360000E000BFC4
:103DB00000BF204600F04BFC70BD0000002400BF97
:103DC00019E000BF00BFFCF7EDF9044600BF00BFDB
:103DD00009480068401C0849086008480068401C01
:103DE0000649086000BF00BF2046FCF7DFF900BFAE
:103DF00000BFFEF7C5FCE4E7E00000202C01002036
:103E000010B58AB0044600200E4908600B2000213E
:103E10000591CDE90704069108460B4909680B4A4C
:103E200012680B4B1B68CDE90132CDE903103F202E
:103E30000023084A08A100900C48FEF77DFF0AB055
:103E400010BD0000E0000020507E00084C7E0008FD
:103E5000487E0008BD3D000875432F4F532D49494A
:103E6000492049646C65205461736B00E00D0120AA
:103E70002DE9F84F04460D4616461F46DDE90BAB0B
:103E8000DDF82890DDF834800020009000BF00BFEE
:103E9000FCF788F9009000BF00BF2B4800882B4931
:103EA000098888423EDA28480088401C2649088054
:103EB000274800880988884203DA23480088244973
:103EC0000880244800680460224800688560214812
:103ED0000068C6601F48006807821E480068C0F876
:103EE00014901C480068A0F818A01A480068C0F890
:103EF0001CB018480068406816490860012016493F
:103F00000881164808604860002000F06FFC1448E3
:103F1000007818B112480078124908700020A8F8FB
:103F2000000008E010480088401C0F49088044F257
:103F30005360A8F8000000BF00BF0098FCF736F9F6
:103F400000BF00BFBDE8F88FF00000205C7E0008D5
:103F5000F2000020E80000206C0F0120A00E0120DC
:103F60001201002014010020F40000203EB5554845
:103F70000068554A0168881A914279D00FDC53488D
:103F8000084400283ED052490844A8B15149084489
:103F9000002860D05049084400286AD13FE04F49CA
:103FA0000844002850D04E490844002862D04D49AA
:103FB00008440028F1D110E002A8424D00902D687D
:103FC000EB69404D2D682A8B3E4D2D6869693D4D4A
:103FD0002D68A868FFF7AEFD71E002A939480068B6
:103FE000C069384DCDE900012D682B8B354D2D680A
:103FF0002A8A344D2D68E968324D2D68A86800F092
:1040000025FC5CE02F4B1B68DA692E4B1B68198B73
:104010002C4B1B68986802AB00F088FD4FE002A9AA
:1040200028480068C069274DCDE900012D682B8B19
:10403000244D2D682A8A234D2D68E968214D2D686D
:10404000A86801F003F93AE01E490968886802A9E6
:1040500001F010FA33E01B4B1B68DA69194B1B683F
:10406000198B184B1B68986802AB01F0AFFA26E079
:1040700007E023E013490968886802A901F008FDF8
:104080001DE01048006802AB0021C269164801F02B
:104090009DFA16480068401E1449086008460068EA
:1040A00058B9134800680860FDF7B4FA044602AB3B
:1040B000224600210F4801F089FA00E000BF00BF4E
:1040C0003EBD0000EC0000205449434BADBAB2BEE7
:1040D0000DF90BFAF2F8F7FF0006F6FF00F7FDF70F
:1040E00000FFEFFF03FE0FFE2C13012068010020EC
:1040F00064010020EC130120002700BF4CE00026E3
:1041000048E000BF00BFFCF74DF8074600BF00BF06
:104110002248008888B90020214908810860486049
:1041200000F076FB00BF00BF3846FCF73FF800BF49
:1041300000BFFEF75DFC01262CE000BF00BF384643
:10414000FCF734F800BF00BFFDF764FA0546FFF73F
:104150000DFFFDF75FFA441B12480068A04201D230
:104160001048046000BF00BFFCF71CF8074600BF02
:1041700000BF0D48006840680B4908600748008888
:10418000401E0649088000BF00BF3846FCF70EF805
:1041900000BF00BF002EB4D0B1E70000F000002047
:1041A0006C0F0120F8000020EC000020F0B589B071
:1041B00005460020314908803148006820B944F2A2
:1041C0005260288009B0F0BD2E480088022803DA2A
:1041D00044F254602880F5E700202B490860284805
:1041E00004682646203600270CE02848206000207E
:1041F000A060E06020826061208366602034203609
:10420000781C87B21F4800888742EEDB203C1C48A0
:10421000066866601E4806601E48066000201E494B
:1042200008801E4908801E48006818B944F255608D
:104230002880C7E71B4800681B490968884203D2E9
:1042400044F256602880BDE7032000210591CDE9A6
:104250000705069113480068144A1268104B1B6842
:10426000CDE90301CDE9013200910B46104A11A1BD
:104270001748FEF761FD00BFA4E70000F40000202E
:10428000587E00085C7E0008F80000204E4F4E4526
:10429000E8000020EC000020F0000020F2000020E8
:1042A000647E00086C7E0008A47E0008687E00081A
:1042B000F940000875432F4F532D49494920495370
:1042C00052205175657565205461736B00000000C4
:1042D000A00E01200021034A1160034A11800180D1
:1042E00070470000040100200801002070B501465D
:1042F0001A4D2D681DB945F21E750D8070BD184D03
:104300002D881DB945F21D750D80F7E7134D2868FE
:104310002A681032124D2D886D1EACB2002308E0C1
:104320000260002545600581C560103010325D1CBB
:10433000ABB2A342F4DB0025056045600581C56092
:10434000064D2D68074E3560054D2D88B58000253A
:10435000F58035810D8000BFD0E70000887E000821
:10436000807E0008600F012010B5014648894B8906
:10437000002B17DD0A680C4B1B6813600A4C4B6856
:1043800023602346DB884C891B1B074CE3802346B4
:104390009B884C892344044CA38000234B818B8150
:1043A0000B604B6010BD0000600F012001810022F6
:1043B0004281828102604260704700002DE9F04135
:1043C0000D46DDE90674B0F80AC0B0F80880C445AF
:1043D00005DB46F2935CA4F800C0BDE8F081DFF88D
:1043E000DCC0BCF804C0BCF1000F04D145F21D7C58
:1043F000A4F800C0F1E7DFF8C4C0DCF80010DFF873
:10440000BC80D1F800C0C8F800C0C446BCF804C0E5
:10441000ACF1010CA8F804C0C446BCF806C00CF10D
:10442000010CA8F806C0C446BCF808C0B8F806805D
:10443000C44507DADFF884C0BCF806C0DFF87C802A
:10444000A8F808C0B0F80AC0BCF1000F0AD101609A
:1044500041604FF0010CA0F80AC04FF0000CC1F809
:1044600000C017E003F0100CBCF1000F07D1066884
:10447000316001604FF0000CC1F800C004E0D0F8DA
:1044800004C0C1F800C04160B0F80AC00CF1010CD2
:10449000A0F80AC0B0F80CC0B0F80A80C44503DA2E
:1044A000B0F80AC0A0F80CC04D600A81CF604FF090
:1044B000000CA4F800C000BF8FE70000600F0120CF
:1044C0000021034A1160034A1180018070470000F7
:1044D0000C010020100100202DE9F04105460C469A
:1044E00016461F461548006880F8346000201349BE
:1044F000096881F8350039461048006800F0DCFD95
:104500006CB104F10808EC60012229460B480068F0
:1045100000F016F82946404600F066F806E0002054
:1045200006490968C887054909680863034801689E
:10453000204600F019F8BDE8F08100006C01002071
:1045400010B5C287016300230AE000244C600C60B0
:104550000C614C610C83CC61886020315C1CA3B27F
:104560009342F2DB10BD000030B548B14568C1F898
:10457000BC5000F10804226893681D6AC56113E00D
:1045800091F83450022D02D0072D08D103E007A581
:10459000C1F8BC5007E007A5C1F8BC5003E008A56E
:1045A000C1F8BC5000BF00BF30BD00005461736B48
:1045B000205100005461736B2053656D00000000B2
:1045C0002000000030B507A5C1F8BC5000F1080478
:1045D00022681AB193681D6AC56101E001A5C56131
:1045E00030BD000020000000F0B58E6896F837500E
:1045F00007893FB90127078100274F600F600160DD
:10460000416023E007897F1C0781026806E0946807
:1046100094F83770AF4200DD02E05268002AF6D10C
:1046200000BF32B900274F6043680B60596041609A
:104630000CE017682FB9116000270F604A60016015
:1046400004E013680B604A6059601160F0BD2DE909
:10465000F0410446256BE68F0AE0D5F80C8008F19E
:1046600008072946384600F00AF82035701E86B241
:10467000002EF2DC0020E0872063BDE8F08110B559
:104680000489012C03D100240460446011E00C680B
:1046900024B94A680024146002600AE04C6824B916
:1046A0000B6800245C60436003E00B684A685A6052
:1046B00013600489641E048100244C600C6010BDEA
:1046C0002DE9F84306460C4617469846089D94F88F
:1046D0003600082850D2DFE800F004050809060774
:1046E0002B2C00BF00BF00BF47E000BF94F8340090
:1046F000032807D143463A4621463046009500F04C
:104700003FF803E0E765A4F86080256436B12046F1
:10471000FFF79DFF21463046FFF754FF204600F08B
:104720009BFE00203434A070607004F8340924E04B
:1047300000BF94F83400032807D143463A46214687
:104740003046009500F01CF803E0E765A4F86080AF
:104750002564204601F036FB36B12046FFF777FF8F
:1047600021463046FFF72EFF04203434A07000208D
:10477000607004F8340900E000BF00BFBDE8F883B2
:10478000F0B50446059E086BCD8F0AE0C768A742C6
:1047900004D1046142610383C66104E020306F1ECE
:1047A000BDB2002DF2DC00BFF0BD000070B50025E9
:1047B000074C03E005F12000C5B2241D2068002845
:1047C000F8D02068FBF7F9FC2844C5B2284670BD34
:1047D000BC000020002004E00021034A42F8201021
:1047E000401C0228F8D37047BC00002030B54209B5
:1047F00000F01F030121C3F11F04A140034C54F832
:1048000022400C43014D45F8224030BDBC00002041
:1048100030B5420900F01F030121C3F11F04A1407C
:10482000034C54F822408C43014D45F8224030BDE2
:10483000BC0000200021034A1160034A118001805E
:1048400070470000180100201C0100202DE9F04FE6
:1048500085B007468A4693461C460020029000BF5A
:1048600000BF00BFFBF79EFC029000BF00BF48489E
:104870000078401C4649087000BF00BF0298FBF753
:1048800095FC00BF00BF00BF07F108063089002873
:1048900042D104F0100010B94FF0000801E04FF0D1
:1048A0001008DDE90E0143465A46CDE900015146A4
:1048B00007F12000FFF782FD00BF00BF00BFFBF73C
:1048C00071FC029000BF00BF31480078401E3049A3
:1048D000087008460078A0B92E480088002809DD35
:1048E00000BF00BF0298FBF761FC00BF00BF00F0F3
:1048F000E7F80DE000BF00BF0298FBF757FC00BFD0
:1049000006E000BF00BF0298FBF750FC00BF00BFED
:1049100000BF05B0BDE8F08F04F4007008B1358920
:1049200000E00125D6F8009011E0D9F808000390C6
:10493000D9F8040004900E985B4652460090384621
:104940000399FFF7BDFEDDF81090681E85B2002DBB
:10495000EBD100BF00BF00BFFBF724FC029000BFFB
:1049600000BF0B480078401E0949087000BF00BF17
:104970000298FBF71BFC00BF00BF00BF04F400401F
:1049800008B9FEF735F800210F98018000BFC0E795
:104990001E010020F000002000210AE001EB41028E
:1049A000054B03EB820000220281026042604A1C38
:1049B000D1B24029F2D370476C0F012010B50446E4
:1049C00094F83700FFF712FF94F83700054909788B
:1049D000884203D1204600F027F802E0204600F08C
:1049E00003F810BD1201002010B590F8373003EB2A
:1049F00043030C4C04EB83010B893BB901230B816E
:104A00000023C36003610860486009E00B895B1CF8
:104A10000B810B68C360002303610A6810610860A2
:104A200010BD00006C0F012010B590F8373003EB7B
:104A300043030B4C04EB83010B893BB901230B812E
:104A40000023C36003610860486008E00B895B1CB9
:104A50000B810023C3604A680261D060486010BDCA
:104A60006C0F01202DE9F041054695F8370000EB69
:104A70004000124901EB80042F69EE6887B946B9FE
:104A8000002020812060606095F83700FFF7C0FEAD
:104A90000EE02089401E208100203061266007E062
:104AA0002089401E2081FE600EB9676000E03761FA
:104AB00000202861E860BDE8F08100006C0F012053
:104AC00010B5002400BFFBF76DFB044600BF0020BB
:104AD0000C4908700C480D49086008460068D0F879
:104AE0009000401C0968C1F8900009480068401C0B
:104AF00007490860FBF745FD00BF2046FBF756FB62
:104B000000BF10BD13010020A00E01207001002085
:104B1000400100200021034A1160034A11800180F6
:104B20007047000020010020240100202DE9FF5FD4
:104B30000446884691461D460020019000BF00BFF4
:104B4000FBF730FB019000BF00BF04F10807388974
:104B500000284FD10420012804D0022814D00428B2
:104B600034D123E0206AFF280DD100BF00BF019897
:104B7000FBF71CFB00BF00BF46F6C5502880002095
:104B800004B0BDE8F09F22E04FF6FF71206A884232
:104B90000BD100BF00BF0198FBF708FB00BF00BFAF
:104BA00046F6C55028800020EAE710E0206A401C45
:104BB00058B900BF00BF0198FBF7F8FA00BF00BF6B
:104BC00046F6C55028800020DAE700E000BF00BFAD
:104BD000206A401C2062D4F820A0C4F8249000BFB2
:104BE00000BF0198FBF7E2FA00BF00BF0020288059
:104BF0005046C5E700BF25480078401C234908708F
:104C000000BF00BF0198FBF7D1FA00BF00BF00BF93
:104C100008F4007008B13E8900E00126D7F800B022
:104C200011E0DBF808000290DBF804000390002399
:104C30001A46CDF8009020460299FFF741FDDDF8B5
:104C40000CB0701E86B2002EEBD1D4F820A000BFAD
:104C500000BF00BFFBF7A6FA019000BF00BF0B48E2
:104C60000078401E0949087000BF00BF0198FBF79B
:104C70009DFA00BF00BF00BF08F4004008B9FDF76F
:104C8000B7FE0020288050467AE700001E01002071
:104C900086B00020009000BF06E0C34909684800C4
:104CA00001AA0021FEF7B0FCC04800780128F4D129
:104CB00001A8FDF7A1FF0027BD480068BA490968AF
:104CC000884205D9BA480068B7490968B0FBF1F7CE
:104CD00027B9B74800680A21B0FBF1F762E1FCF799
:104CE00099FC804600BF00BFFBF75CFA009000BF54
:104CF00000BFB0480068B04908600020AD490860B6
:104D000000BF00BF0098FBF751FA00BF00BFAB48DF
:104D10000068A9490968884248D9A8480068A84994
:104D2000884205D242F2107003900120029023E0E5
:104D3000A2480068A349884205D24FF47A700390D4
:104D40000A20029018E09D4800689F49884203D2DB
:104D50006420039002900FE0984800689B498842C5
:104D600005D20A2003904FF47A70029004E00120EB
:104D7000039042F210700290904801680298B1FBD3
:104D8000F0FA8D49039809684843B0FBFAF042F203
:104D90001071081A8E4908808E4800880988884258
:104DA00008DA8B4800888B49088003E042F21070D3
:104DB00087490880FDF7B6FF002500BF00BFFBF75D
:104DC000F1F9009000BF00BF8348046800BF00BF36
:104DD0000098FBF7EBF900BF00BF5AE000BF00BF2F
:104DE00000BFFBF7DFF9009000BF00BF7B480078F1
:104DF000401C7A49087000BF00BF0098FBF7D6F945
:104E000000BF00BF00BF54F89C0F6060002044F852
:104E10009C0900BF00BF00BFFBF7C4F9009000BFB2
:104E200000BF6E480078401E6C4908700846007844
:104E3000A0B96B480088002809DD00BF00BF0098BA
:104E4000FBF7B4F900BF00BFFFF73AFE0DE000BF6B
:104E500000BF0098FBF7AAF900BF06E000BF00BF43
:104E60000098FBF7A3F900BF00BF00BFD4F8A00073
:104E7000054400BF00BFFBF795F9009000BF00BFDD
:104E8000D4F8B84000BF00BF0098FBF78FF900BF0F
:104E900000BF002CA2D145B34948854205D242F259
:104EA000107005904FF0010B1BE04648854205D27B
:104EB0004FF47A7005904FF00A0B12E04248854299
:104EC00003D26420059083460BE04048854204D21B
:104ED0000A2005904FF47A7B03E00120059042F20E
:104EE000107BB5FBFBF0049003E00020059001204F
:104EF000049000BF00BFFBF755F9009000BF00BF52
:104F00003548046800BF00BF0098FBF74FF900BFA9
:104F100000BF2BE0D4F8A000059948430499B0FBEA
:104F2000F1F086B242F21070864200D90646A4F82B
:104F30008C60B4F88E00B04201DAA4F88E6001AB48
:104F400004F1AC02111D2046FEF72AFA00BF00BF93
:104F5000FBF728F9009000BF00BFD4F8B84000BFAD
:104F600000BF0098FBF722F900BF00BF002CD1D191
:104F70001C480078012805D100201A49087001A8B2
:104F8000FDF73AFEFCF746FBA0EB0809164800685F
:104F9000484502D21448C0F8009001AA00213846C2
:104FA000FEF732FB9BE60000907E000838010020EF
:104FB000A87E00082C0100203401002030010020D0
:104FC000801A060000093D00005A62020084D717CB
:104FD000280100202A010020440100201E01002099
:104FE000F0000020260100203C01002010B58AB00E
:104FF000044600201F4908601F4908601F490860D7
:105000001F4908701F4908701F48006820B946F6FC
:105010002B6020800AB010BD1C4800681C4909683C
:10502000884203D246F62C602080F3E719480078C6
:105030003F2803D346F62A602080EBE703200021B7
:105040000591CDE907040691084610490968124AFE
:1050500012680D4B1B68CDE90132CDE903100D48F4
:10506000007800230D4A0EA100901248FDF764FE5F
:1050700000BFCFE72C0100203401002030010020C8
:105080003801002026010020947E00089C7E000844
:10509000A47E00088C7E0008987E0008914C0008D1
:1050A00075432F4F532D494949205374617420543F
:1050B00061736B006C12012038B504460D4685B152
:1050C0006B4602222946204600F09EFDBDF80000F6
:1050D00018B9032084F8360006E0022084F8360070
:1050E00002E0022084F836002046FFF7BBFC38BD02
:1050F0000021C0F8B4100949096819B90021C0F8A5
:10510000B81007E005490968C0F8B81003490968F4
:10511000C1F8B40001490860704700004401002054
:10512000D0F8B420D0F8B8104AB90D4B196011B1BD
:105130000023C1F8B4300023C0F8B8300FE029B91B
:105140000023C2F8B830C0F8B43008E0C2F8B81094
:10515000C1F8B4200023C0F8B830C0F8B4307047AC
:10516000440100200021044A1160044A1180044ACD
:1051700011600180704700004401002048010020B8
:105180004001002070B5044600202060A0606060EF
:10519000E06020616061A061E06129A020620020E0
:1051A0006062A062E0622063E0872064E065A4F8AA
:1051B0006000002104F16400FFF7F8F8002044F8D3
:1051C000740F6060E060A0822061743C002506E0FE
:1051D000002104F17C0040F82510681CC5B2002DA8
:1051E000F6D000203434206120676067606084F866
:1051F0005600E067A06720814FF00040606100200A
:10520000A061E06120626062A4F85800A4F85A002E
:10521000E0652066FCF7FEF9064666660020A0669B
:1052200020706070A0704020E0700020C4F8800002
:10523000C4F8840004A0C4F88800343C70BD0000A9
:105240003F5461736B000000200000002DE9FC4713
:1052500004460F4690469946DDE90A654FF0000A7C
:1052600000BF00BF00BFFAF79DFF824600BF00BF2E
:1052700076480078401C7549087000BF00BF504652
:10528000FAF794FF00BF00BF00BF0CB97048046874
:105290000020288094F8360008287DD2DFE800F04E
:1052A00004053E3F0607404100BF00BF00BF4B461C
:1052B0004246394604F16400CDE90065FFF77EF807
:1052C00000BF00BF00BFFAF76DFF824600BF00BFFE
:1052D0005E480078401E5D49087008460078A0B915
:1052E0005C480088002809DD00BF00BF5046FAF77F
:1052F0005DFF00BF00BFFFF7E3FB0DE000BF00BF95
:105300005046FAF753FF00BF06E000BF00BF50460B
:10531000FAF74CFF00BF00BF00BF93E000BF00BF23
:1053200000BF94F83400022821D143463A46214672
:1053300000200096FFF7C4F900BF00BF00BFFAF7D6
:1053400031FF824600BF00BF40480078401E3F4901
:10535000087000BF00BF5046FAF728FF00BF00BF2B
:1053600000BF09F4004090BBFDF742FB38E04B461C
:105370004246394604F16400CDE90065FFF71EF8A6
:1053800000BF00BF00BFFAF70DFF824600BF00BF9D
:105390002E480078401E00E023E02C4908700846A3
:1053A0000078A8B92B480088002809DD00BF00BF9D
:1053B0005046FAF7FBFE00BF00BFFFF781FB0EE08F
:1053C00000BF00BF5046FAF7F1FE00BF07E007E05C
:1053D00000BF00BF5046FAF7E9FE00BF00BF00BFA4
:1053E00030E000BF00BF00BFFAF7DCFE824600BF1E
:1053F00000BF16480078401E14490870084600781F
:10540000A0B914480088002809DD00BF00BF50463D
:10541000FAF7CCFE00BF00BFFFF752FB0DE000BF64
:1054200000BF5046FAF7C2FE00BF06E000BF00BF53
:105430005046FAF7BBFE00BF00BF00BF46F62D6026
:10544000288000BF00BFBDE8FC8700001E010020CF
:105450006C010020F000002010B50446204600F04A
:10546000B1FC94F8360000F0040010B92046FFF7B4
:10547000A5FA10BD70B504460D46002600BF00BF5A
:10548000FAF790FE064600BF00BF0020288094F87F
:10549000360008287BD2DFE800F004050607124337
:1054A000556700BF00BF00BF00BF00BF3046FAF71E
:1054B0007DFE00BF00BF47F25310288072E000BF9E
:1054C0003B480078401C3A49087000BF00BF304696
:1054D000FAF76CFE00BF00BF00BF14F88A0F401E31
:1054E000207014F88A0928B9002084F83600204674
:1054F000FFF7B2FF00BF00BF00BFFAF753FE06463A
:1055000000BF00BF2A480078401E2949087000BF2C
:1055100000BF3046FAF74AFE00BF00BF00BF41E0BF
:1055200014F88A0F401E207014F88A0910B901205F
:1055300084F8360000BF00BF3046FAF737FE00BFE0
:1055400000BF2FE014F88A0F401E207014F88A095B
:1055500010B9022084F8360000BF00BF3046FAF7C9
:1055600025FE00BF00BF1DE014F88A0F401E20700A
:1055700014F88A0910B9032084F8360000BF00BF70
:105580003046FAF713FE00BF00BF0BE0FFE700BF95
:1055900000BF3046FAF70AFE00BF00BF46F62D6096
:1055A000288070BD00BFFDF723FA00BFF9E70000B7
:1055B0001E01002008B504480068FDF7DBFD6946C0
:1055C0000020FDF7E9FC08BD6C0100202DE9F8433F
:1055D0000446884617461D464FF0000900BF00BF2D
:1055E00000BFFAF7DFFD814600BF00BFFE4800782C
:1055F000401CFD49087000BF00BF4846FAF7D6FDC1
:1056000000BF00BF00BF0CB9F84804682764002041
:10561000288094F83600082871D2DFE800F00405ED
:10562000EBEC0607EDEE00BF00BF00BF0420012831
:1056300004D0022839D004286FD170E0606CFF28B4
:1056400032D100BF00BF00BFFAF7ACFD814600BFFA
:1056500000BFE5480078401EE3490870084600781E
:10566000A0B9E3480088002809DD00BF00BF484614
:10567000FAF79CFD00BF00BFFFF722FA0DE000BF64
:1056800000BF4846FAF792FD00BF06E000BF00BF2A
:105690004846FAF78BFD00BF00BF00BF46F6C55075
:1056A00028800020BDE8F88371E04FF6FF71606C40
:1056B000884233D100BF00BF00BFFAF773FD8146B7
:1056C00000BF00BFC8480078401EC74908700846A0
:1056D0000078A8B9C6480088002809DD00BF00BFCF
:1056E0004846FAF763FD00BF00BFFFF7E9F90EE097
:1056F00000BF00BF4846FAF759FD00BF07E08DE143
:1057000000BF00BF4846FAF751FD00BF00BF00BF11
:1057100046F6C55028800020C4E737E037E0606CCB
:10572000401C88BB00BF00BF00BFFAF73BFD8146AD
:1057300000BF00BFAC480078401EAB490870084667
:105740000078A0B9AA480088002809DD00BF00BF82
:105750004846FAF72BFD00BF00BFFFF7B1F90DE097
:1057600000BF00BF4846FAF721FD00BF06E000BFBA
:1057700000BF4846FAF71AFD00BF00BF00BF46F65B
:10578000C550288000208DE7FFE700E000BF00BF84
:10579000606C401C6064666C00BF00BF00BFFAF71D
:1057A00001FD814600BF00BF8F480078401E8E4932
:1057B000087008460078A0B98D480088002809DDE7
:1057C00000BF00BF4846FAF7F1FC00BF00BFFFF77B
:1057D00077F90DE000BF00BF4846FAF7E7FC00BFCD
:1057E00006E000BF00BF4846FAF7E0FC00BF00BF7C
:1057F00000BF45E100BF00BF00BF94F83400072898
:1058000023D100231A46214618460097FEF758FF79
:10581000666C00BF00BF00BFFAF7C4FC814600BF42
:1058200000BF71480078401E6F49087000BF00BF7C
:105830004846FAF7BBFC00BF00BF00BF08F40040B9
:10584000002801D1FDF7D4F8E7E00420012804D0B6
:10585000022838D004286ED16EE0606CFF2831D168
:1058600000BF00BF00BFFAF79DFC814600BF00BF2C
:105870005D480078401E5C49087008460078A0B971
:105880005B480088002809DD00BF00BF4846FAF7E2
:105890008DFC00BF00BFFFF713F90DE000BF00BF94
:1058A0004846FAF783FC00BF06E000BF00BF484649
:1058B000FAF77CFC00BF00BF00BF46F6C550288049
:1058C0000020EFE670E04FF6FF71606C884231D146
:1058D00000BF00BF00BFFAF765FC814600BF00BFF4
:1058E00041480078401E4049087008460078A0B939
:1058F0003F480088002809DD00BF00BF4846FAF78E
:1059000055FC00BF00BFFFF7DBF80DE000BF00BF94
:105910004846FAF74BFC00BF06E000BF00BF484610
:10592000FAF744FC00BF00BF00BF46F6C550288010
:105930000020B7E638E036E0606C401C88BB00BF52
:1059400000BF00BFFAF72EFC814600BF00BF26480B
:105950000078401E2449087008460078A0B9244801
:105960000088002809DD00BF00BF4846FAF71EFC8A
:1059700000BF00BFFFF7A4F80DE000BF00BF48461E
:10598000FAF714FC00BF06E000BF00BF4846FAF774
:105990000DFC00BF00BF00BF46F6C55028800020A8
:1059A00080E6FFE700E000BF00BF606C401C606461
:1059B000666C00BF00BF00BFFAF7F4FB814600BF72
:1059C00000BF09480078401E074908700846007863
:1059D000D8B907480088002810DD00BF00BF48463E
:1059E000FAF7E4FB00BF05E01E0100206C01002077
:1059F000F000002000BFFFF763F80DE000BF00BF1C
:105A00004846FAF7D3FB00BF06E000BF00BF484698
:105A1000FAF7CCFB00BF00BF00BF31E000BF00BF02
:105A200000BFFAF7BFFB814600BF00BF16480078F1
:105A3000401E1549087008460078A0B91348008830
:105A4000002809DD00BF00BF4846FAF7AFFB00BFE2
:105A500000BFFFF735F80DE000BF00BF4846FAF77A
:105A6000A5FB00BF06E000BF00BF4846FAF79EFB5B
:105A700000BF00BF00BF46F62D602880002600BF93
:105A800000BF30460EE600001E010020F00000209E
:105A900070B504460D46002600BF00BFFAF782FB32
:105AA000064600BF00BF0CB94B4804684A4800686E
:105AB00084420ED14948007800280ADD00BF00BFAB
:105AC0003046FAF773FB00BF00BF46F663502880EC
:105AD00070BD0020288094F8360008286CD2DFE8DA
