:020000040800F2
:10000000784D0120D5010008A9210008C516000877
:10001000D117000875030008B57300080000000040
:10002000000000000000000000000000A9620008BD
:10003000E713000800000000F30200083D64000818
:10004000EF010008EF010008EF010008EF010008D0
:10005000EF010008EF010008EF010008EF010008C0
:10006000EF010008EF010008EF010008EF010008B0
:10007000EF010008EF010008EF010008EF010008A0
:10008000EF010008EF010008EF010008EF01000890
:1000900079030008EF010008EF010008EF010008F4
:1000A000EF010008EF010008EF010008EF01000870
:1000B000EF010008EF010008EF010008EF01000860
:1000C000EF010008EF010008EF010008EF01000850
:1000D000EF0100081170000839700008EF010008F6
:1000E000EF010008EF010008EF010008EF01000830
:1000F000EF010008EF010008EF010008EF01000820
:10010000EF010008EF0100087D650008EF0100081D
:10011000EF010008EF010008EF010008EF010008FF
:10012000EF010008EF010008EF010008EF010008EF
:10013000EF010008EF010008EF010008EF010008DF
:10014000EF010008CD030008EF010008EF010008EF
:10015000EF010008EF010008EF01000861700008DE
:10016000EF010008EF010008EF010008EF010008AF
:10017000EF010008EF010008EF010008EF0100089F
:10018000EF010008EF010008DFF810D000F058F888
:100190000048004701750008AFF30080784D01204A
:1001A00072B6704762B67047EFF3108072B6704750
:1001B00080F31088704730BF704720BF7047B0FA97
:1001C00080F0704790FAA0F0B0FA80F0704790FA93
:1001D000A0F070470648804706480047FEE7FEE764
:1001E000FEE7FEE7FEE7FEE7FEE7FEE7FEE7FEE7E7
:1001F000E56400088901000840EA01039B0703D079
:1002000009E008C9121F08C0042AFAD203E011F855
:10021000013B00F8013B521EF9D27047D2B201E017
:1002200000F8012B491EFBD270470022F6E710B5FB
:1002300013460A4604461946FFF7F0FF204610BD54
:10024000064C074D06E0E06840F0010394E8070023
:1002500098471034AC42F6D3FFF79AFF7C78000839
:100260009C78000870B58C1810F8015B15F0070336
:1002700001D110F8013B2A1106D110F8012B03E03F
:1002800010F8016B01F8016B5B1EF9D12B0705D447
:100290000023521E0DD401F8013BFAE710F8013B90
:1002A000CB1A921C03E013F8015B01F8015B521EAC
:1002B000F9D5A142D8D3002070BD000021484FF0ED
:1002C000FF010170002080F309881F48016881F355
:1002D00008881E484FF08051016062B6FEE71B4857
:1002E0004FF080510160704718484FF08051016015
:1002F000704772B6EFF3098050B11EF0100F08BFBF
:1003000020ED108A734620E9F80F1149096808604A
:1003100000B5104880475DF804EB0F480F490A7894
:1003200002700B480E490A6802601068B0E8F80FC6
:100330009E461EF0100F08BFB0EC108A80F30988AB
:1003400062B6704722ED00E05401002004ED00E0A9
:100350004C01002061300008F2000020F300002072
:10036000500100201FB5684605F02AFF019804B02F
:1003700010BD704700BFFEE700B589B004AA002198
:10038000114800F000FE9DF8180004281AD10598C5
:1003900000909DF8190008B1012000E000208DF8C0
:1003A00004009DF81A008DF80500002002900390CB
:1003B0009DF805200DF11B0102A8FFF71DFF6846FF
:1003C00005F0E8FD09B000BD0064004000B593B041
:1003D0000EAA0121FE4800F0D6FD40F201210E9840
:1003E000884274D10EA8017CC07B41EA002000B293
:1003F00000EE100AB8EEC00AF64880ED060A0EA814
:10040000817B407B41EA002000B200EE100AB8EE8A
:10041000C00AF3EE030A80EE201AEE4880ED031ABC
:10042000008A68B9EB48408A50B90EA8007B9DF855
:10043000431040EA012000B2E649488208820CE0FD
:10044000E448408AE34908820EA8007B9DF84310E7
:1004500040EA012000B2DF494882DE4890ED000A00
:100460008DED050A90ED010A8DED060A90ED020A68
:100470008DED070A90ED030A8DED080A008AADF8AC
:100480002400D448408AADF82600D24890ED050AF1
:100490008DED0A0A90ED060A8DED0B0AC0690C90ED
:1004A000CC4890F820008DF83400142209A9684641
:1004B000FFF7A2FE05A80FC801F0D6F8C548D0ED99
:1004C000010A30EE200A80ED010A62E3FFE740F204
:1004D00002210E98884274D10EA8017CC07B41EAAB
:1004E000002000B200EE100AB8EEC00ABA4880ED53
:1004F000060A0EA8817B407B41EA002000B200EE94
:10050000100AB8EEC00AF3EE030A80EE201AB248D1
:1005100080ED031A008A68B9AF48408A50B90EA826
:10052000007B9DF8431040EA012000B2AA494882AE
:1005300008820CE0A848408AA74908820EA8007BE0
:100540009DF8431040EA012000B2A3494882A24826
:1005500090ED000A8DED050A90ED010A8DED060A79
:1005600090ED020A8DED070A90ED030A8DED080A61
:10057000008AADF824009848408AADF826009648D5
:1005800090ED050A8DED0A0A90ED060A8DED0B0A35
:10059000C0690C90904890F820008DF83400142227
:1005A00009A96846FFF728FE05A80FC801F05CF806
:1005B0008948D0ED010A30EE200A80ED010AE8E218
:1005C000FFE740F203210E98884274D10EA8017C07
:1005D000C07B41EA002000B200EE100AB8EEC00A6B
:1005E0007E4880ED060A0EA8817B407B41EA002010
:1005F00000B200EE100AB8EEC00ADFED790A80EE14
:10060000201A764880ED031A008A68B97348408A38
:1006100050B90EA8007B9DF8431040EA012000B2BB
:100620006E49488208820CE06C48408A6B49088217
:100630000EA8007B9DF8431040EA012000B26749F4
:100640004882664890ED000A8DED050A90ED010A9A
:100650008DED060A90ED020A8DED070A90ED030A72
:100660008DED080A008AADF824005C48408AADF898
:1006700026005A4890ED050A8DED0A0A90ED060A0B
:100680008DED0B0AC0690C90544890F820008DF84D
:100690003400142209A96846FFF7AEFD05A80FC86B
:1006A00000F0B2FF4D48D0ED010A30EE200A80ED97
:1006B000010A6EE2FFE70E98B0F5017F74D10EA833
:1006C000017CC07B41EA002000B200EE100AB8EEC7
:1006D000C00A444880ED060A0EA8817B407B41EAAF
:1006E000002000B200EE100AB8EEC00ADFED3C0AAE
:1006F00080EE201A3B4880ED031A008A68B9394819
:10070000408A50B90EA8007B9DF8431040EA0120B2
:1007100000B23449488208820CE03248408A3149AC
:1007200008820EA8007B9DF8431040EA012000B229
:100730002C4948822B4890ED000A8DED050A90ED7A
:10074000010A8DED060A90ED020A8DED070A90ED83
:10075000030A8DED080A008AADF824002148408A7A
:10076000ADF826001F4890ED050A8DED0A0A90EDC0
:10077000060A8DED0B0AC0690C901A4890F820000B
:100780008DF83400142209A96846FFF735FD05A845
:100790000FC800F039FF1348D0ED010A30EE200AEF
:1007A00080ED010AF5E1FFE740F205210E9888424D
:1007B0007ED10EA8017CC07B41EA002000B200EE91
:1007C000100AB8EEC00A084880ED060A0EA80DE02F
:1007D00000680040C40B0120E80B01200C0C012034
:1007E00000001042300C0120540C0120817B407B22
:1007F00041EA002000B200EE100AB8EEC00A5FED38
:10080000080A80EE201AE44880ED031A008A68B9CD
:10081000E148408A50B90EA8007B9DF8431040EA99
:10082000012000B2DC49488208820CE0DA48408AA4
:10083000D94908820EA8007B9DF8431040EA0120A8
:1008400000B2D5494882D44890ED000A8DED050AE2
:1008500090ED010A8DED060A90ED020A8DED070A72
:1008600090ED030A8DED080A008AADF82400CA480D
:10087000408AADF82600C84890ED050A8DED0A0AB9
:1008800090ED060A8DED0B0AC0690C90C24890F8F5
:1008900020008DF83400142209A96846FFF7ACFC4B
:1008A00005A80FC800F0B0FEBB48D0ED010A00E07B
:1008B00004E030EE200A80ED010A6AE140F20621F0
:1008C0000E98884274D10EA8017CC07B41EA0020BA
:1008D00000B200EE100AB8EEC00AB04880ED060A79
:1008E0000EA8817B407B41EA002000B200EE100A96
:1008F000B8EEC00A5FED460A80EE201AA74880EDE8
:10090000031A008A68B9A548408A50B90EA8007B2E
:100910009DF8431040EA012000B2A04948820882B5
:100920000CE09E48408A9D4908820EA8007B9DF8F5
:10093000431040EA012000B298494882974890ED60
:10094000000A8DED050A90ED010A8DED060A90ED85
:10095000020A8DED070A90ED030A8DED080A008A60
:10096000ADF824008D48408AADF826008B4890ED04
:10097000050A8DED0A0A90ED060A8DED0B0AC06995
:100980000C90864890F820008DF83400142209A9B4
:100990006846FFF731FC05A80FC800F035FE7F4818
:1009A000D0ED010A30EE200A80ED010AF1E0FFE708
:1009B00040F207210E98884274D10EA8017CC07BBA
:1009C00041EA002000B200EE100AB8EEC00A7448F6
:1009D00080ED060A0EA8817B407B41EA002000B230
:1009E00000EE100AB8EEC00A5FED830A80EE201A0E
:1009F0006B4880ED031A008A68B96948408A50B98B
:100A00000EA8007B9DF8431040EA012000B2644923
:100A1000488208820CE06248408A614908820EA838
:100A2000007B9DF8431040EA012000B25C494882F7
:100A30005B4890ED000A8DED050A90ED010A8DED01
:100A4000060A90ED020A8DED070A90ED030A8DED7E
:100A5000080A008AADF824005148408AADF8260003
:100A60004F4890ED050A8DED0A0A90ED060A8DEDCE
:100A70000B0AC0690C904A4890F820008DF83400A9
:100A8000142209A96846FFF7B7FB05A80FC800F0B4
:100A9000BBFD4348D0ED010A30EE200A80ED010A8B
:100AA00077E0FFE70E98B0F5027F72D10EA8017CC7
:100AB000C07B41EA002000B200EE100AB8EEC00A86
:100AC000384880ED060A0EA8817B407B41EA002071
:100AD00000B200EE100AB8EEC00A5FEDBF0A80EE69
:100AE000201A304880ED031A008A68B92D48408AE0
:100AF00050B90EA8007B9DF8431040EA012000B2D7
:100B00002849488208820CE02648408A2549088204
:100B10000EA8007B9DF8431040EA012000B2214955
:100B20004882204890ED000A8DED050A90ED010AFB
:100B30008DED060A90ED020A8DED070A90ED030A8D
:100B40008DED080A008AADF824001648408AADF8F9
:100B50002600144890ED050A8DED0A0A90ED060A6C
:100B60008DED0B0AC0690C900E4890F820008DF8AE
:100B70003400142209A96846FFF73EFB05A80FC8F8
:100B800000F042FD0748D0ED010A30EE200A80ED6A
:100B9000010A13B000BD0000540C0120780C0120A4
:100BA0009C0C0120C00C012010B504460B48844267
:100BB00009D10121480605F0E3FA00214FF0007049
:100BC00005F0DEFA08E00121880605F0D9FA0021D7
:100BD0004FF0806005F0D4FA10BD000000640040C2
:100BE00010B50021837A012202FA03F13D4A12680E
:100BF00042F001023B4B1A603A4A1C3212688A43A7
:100C0000384B1C331A60027BCAB9364A0C32126860
:100C10008A43344B0C331A604288C38842EA034348
:100C2000304A4032847A42F834300288838842EA7B
:100C300003432C4A4032847A02EBC4025360027BA5
:100C4000012A19D1274A0C3212680A43254B0C336A
:100C50001A604288038842EA0343224A4032847A77
:100C600042F83430C288838842EA03431D4A403246
:100C7000847A02EBC4025360C27A3AB9194A121D4F
:100C800012688A43174B1B1D1A6006E0154A121D95
:100C900012680A43134B1B1D1A60028932B9114AAC
:100CA000143212688A430F4B14331A600289012AE6
:100CB00006D10C4A143212680A430A4B14331A60E4
:100CC000427B012A06D1074A1C3212680A43054BAF
:100CD0001C331A60034A126822F00102014B1A60A9
:100CE00010BD00000066004010B58AB004464F49B0
:100CF00051F82400012105F023FA4D4B1A5D4D4BAC
:100D000033F814104C4B53F8240000F0E8FB484B28
:100D10001A5D4A4B33F81410474B53F8240000F087
:100D2000DEFB474830F81400464931F814100843F8
:100D3000089002208DF824008DF8250000208DF801
:100D4000260002208DF827003B4951F8240008A90D
:100D500000F07DFB3C4951F82400012105F000FA28
:100D60003A4951F82400FFF71FFF00208DF81A00C0
:100D700001208DF81B0000208DF81C008DF81D004F
:100D80008DF81E008DF81F008DF816008DF81700E5
:100D900007208DF8180004208DF819000320ADF805
:100DA00014002A4951F8240005A900F062F80E2029
:100DB00000F062F92648005D8DF80E0000208DF8E5
:100DC0000F0001208DF810000020ADF80400ADF8F0
:100DD0000600ADF80800ADF80A001E4830F814000F
:100DE000ADF80C0001208DF8110001A8FFF7F8FE06
:100DF0004FF4A06001F016FA1748005D8DF800006E
:100E000000208DF801008DF8020001208DF803000C
:100E1000684601F0CBF9114A52F824100B4A52F8F7
:100E20002400012200F01CF80AB010BD4076000832
:100E3000487600084A760008387600084E760008A2
:100E400030760008347600082876000820760008FE
:100E50005476000856760008527600085C76000842
:100E60001AB143690B43436102E043698B43436119
:100E7000704730B5024600200023146824F00204B5
:100E80001460146844F00104146000E05B1C5468B2
:100E900004F001041CB94FF6FF74A342F6D1546864
:100EA00004F001040CB900206CE08C79012C04D111
:100EB000146844F08004146003E0146824F0800493
:100EC0001460CC79012C04D1146844F040041460FF
:100ED00003E0146824F0400414600C7A012C04D15F
:100EE000146844F02004146003E0146824F0200423
:100EF00014604C7A012C04D1146844F0100414607E
:100F000003E0146824F0100414608C7A012C04D1DE
:100F1000146844F00804146003E0146824F0080422
:100F20001460CC7A012C04D1146844F004041460D9
:100F300003E0146824F0040414608C78A407CD78CE
:100F400044EA05640D7944EA05444D7944EA0554C0
:100F50000D886D1E2C43D461146824F001041460C4
:100F6000002300E05B1C546804F001041CB14FF640
:100F7000FF74A342F6D1546804F001040CB10020C0
:100F800000E0012030BD10B500F5D87303EB01136C
:100F90001B6803F004031372137A53B900F5D87376
:100FA00003EB01131B6840F2FF7404EA5353136010
:100FB00009E000F5D87303EB01131B686FF0604480
:100FC00004EAD303536000F5D87303EB01131B68E5
:100FD00003F00203537200F5D87303EB01135B684F
:100FE00003F00F03937200F5D87303EB01135B68F2
:100FF0001B0AD37400F5D87303EB01139B68D372FB
:1010000000F5D87303EB01139B681C0A147300F5F9
:10101000D87303EB01139B681C0C547300F5D87351
:1010200003EB01139B681B0E937300F5D87303EB5E
:101030000113DB68D37300F5D87303EB0113DB688E
:101040001C0A147400F5D87303EB0113DB681C0C45
:10105000547400F5D87303EB0113DB681B0E937413
:1010600021B9C36843F02003C36003E0036943F080
:101070002003036110BD00000B49096841F0010124
:10108000094A11601146096843F60E729143064AF7
:1010900011601146096841EA002111601146096892
:1010A00021F00101116070470066004010B5024652
:1010B0000020936803F08063B3F1806F00D110E0EB
:1010C000936803F00063B3F1006F01D1012008E0E1
:1010D000936803F08053B3F1805F01D1022000E0F8
:1010E0000420042874D002F5C07303EB00131B68BE
:1010F00003F0010402F5C07303EB00131C600B7ACC
:101100007BB94B7A0C8843EA445302F5C07404EB74
:1011100000142468234302F5C07404EB0014236018
:1011200010E00B7A4C6843EAC4034C7A234302F57F
:10113000C07404EB00142468234302F5C07404EB6C
:10114000001423608B7A03F00F038B7202F5C073D7
:1011500003EB00135B6823F00F0402F5C07303EB8D
:1011600000135C6002F5C07303EB00135B688C7ABC
:10117000234302F5C07404EB001463608B7B1C06F0
:101180004B7B44EA03440B7B44EA0323CC7A23439E
:1011900002F5C07404EB0014A3608B7C1C064B7C2E
:1011A00044EA03440B7C44EA0323CC7B234302F54B
:1011B000C07404EB0014E36002F5C07303EB00138A
:1011C0001B6843F0010402F5C07303EB00131C60BD
:1011D00010BD0000F0B591B006460D46402101A8B3
:1011E000FFF723F800240DE00A2095FBF0F100FB47
:1011F0001150303001A908550A2095FBF0F505B9CA
:1012000002E0641C402CEFDB00BF07A000783070C8
:10121000002704E001A8C05D3055641E7F1C002C2F
:10122000F8DA11B0F0BD0000000000002DE9F04137
:1012300004460D46164600270B4850F8268000BF8E
:101240000DE000BF8021404605F037FF0128F9D1AD
:1012500014F8011B404606F0A9F8781CC7B2AF424B
:10126000EFDBBDE8F08100007075000810B500F0FC
:101270001FF800F019F810BD10B5002400BF00BF22
:10128000FEF792FF044600BF00BF1021054800F0A2
:10129000A1FA00BF00BF2046FEF78AFF00BF00BFD3
:1012A00010BD0000028D002010B5FFF7E5FF10BD56
:1012B00010B500200249086000F00AF810BD0000D7
:1012C0009000002001490860704700009000002055
:1012D00010B5FFF747F804460848006840F08070F2
:1012E000064908600020064948600846006840F04A
:1012F000010008602046FFF7E5FF10BDFCED00E0AF
:10130000001000E00149486870470000001000E04C
:10131000B0EE402AF0EE602A32EE620AF0EE400AA9
:1013200090ED000A20EE200AB0EE404A90ED010A4E
:1013300020EE200AF0EE404A90ED050A30EE240A35
:10134000F0EE401A90ED040AB4EEE10AF1EE10FA64
:1013500004D290ED040A80ED050A15E090ED040A30
:10136000BFEE005A20EE050AB4EEE10AF1EE10FAE3
:1013700008DD90ED040ABFEE005A20EE050A80ED6C
:10138000050A01E0C0ED051A90ED060A70EEC03ABC
:1013900090ED020A20EE233AC0ED060A90ED050A10
:1013A00030EE040A30EE031A90ED030AB4EEC10ADF
:1013B000F1EE10FA02D890ED030A704790ED030A9F
:1013C000BFEE005A20EE050AB4EEC10AF1EE10FAA3
:1013D00006DD90ED030ABFEE005A20EE050AECE7A9
:1013E000B0EE410AE9E7704710B50121022004F090
:1013F000A7FE0121084604F0A3FE01231A460F218F
:10140000074804F077FD01231A460F21054804F030
:1014100071FD01231A460E21024804F06BFD10BD38
:10142000000002400004024010B504460B460021B3
:1014300009E033F83100A04203D103EBC10040685A
:1014400010BD481CC1B29142F3DB0020F8E7F0B5B3
:101450000A4600210023002400BF3DE0012505FAD3
:1014600001F3156805EA03049C4234D105684F0076
:101470000326BE40B543056015794E00B5400668A9
:10148000354305601579012D02D01579022D16D14D
:1014900085684F000326BE40B543856055794E00F0
:1014A000B540866835438560456801268E40B54362
:1014B0004560456896798E40B6B235434560C5684B
:1014C0004F000326BE40B543C560D5794E00B540F8
:1014D000C6683543C560491C1029BFD3F0BDF0B5BF
:1014E000002300244D07ED0E02FA05F3CE1000F1A3
:1014F000200555F826504E07F70E0F26BE40B5437F
:10150000CF1000F1200646F82750CE1000F120053C
:1015100055F8265045EA0304CE1000F1200545F8A1
:101520002640F0BD41837047018370472DE9F047A5
:1015300006460F4617B92E4C2E4D08E0012F02D15A
:101540002D4C2E4D03E0022F01D12D4C2D4D94F842
:10155000029094F80080EE2E0FD1B8F1040F0CD059
:10156000B9F1FF0F03D000202070804605E02878F5
:10157000002802DD2878401E2870B8F1050F31D20E
:10158000DFE808F00306111A2700012020702AE086
:10159000042E02DA0020207004E0E670002028709B
:1015A000022020701FE06E70E078042801D12070C6
:1015B00001E00320207016E0E078401EE0702978FA
:1015C000481C2870281D4654E078042800D120705B
:1015D00009E0EE2E03D13946284604F081FD0020B3
:1015E000207000E000BF00BFA670BDE8F0870000DB
:1015F0007C010020B006012080010020340701207A
:1016000084010020B80701200FB4BDF91210BDF904
:101610001020881A011E01DB0A4600E04A42B2F59A
:101620007A6F08DD011E01DB0A4600E04A4290FBAA
:10163000F2F2A0EB423000EE100AB8EEC00ADFED85
:10164000070A20EE200A9FED061AC0EE010A9FED60
:10165000051A80EE810A04B0704700000000B44310
:1016600000001042000000460FB4BDF91210BDF991
:101670001020881A011E01DB0A4600E04A42B2F53A
:101680007A6F08DD011E01DB0A4600E04A4290FB4A
:10169000F2F2A0EB423000EE100AB8EEC00ADFED25
:1016A000070A20EE200AB3EE031AC0EE010A9FEDEE
:1016B000041A80EE810A04B0704700000000B443B1
:1016C0000000004600BFFEE701460020102931D28D
:1016D000DFE801F0080A0C0E10121416181B1E2168
:1016E00024272A2D012026E0022024E0042022E0E5
:1016F000082020E010201EE020201CE040201AE0FE
:10170000802018E04FF4807015E04FF4007012E074
:101710004FF480600FE04FF400600CE04FF4805015
:1017200009E04FF4005006E04FF4804003E04FF42E
:10173000004000E000BF00BF7047000010B500246B
:101740001EE00E21124804F019FC0F21114804F08C
:1017500015FC0F210E4804F011FC322000F018FD9A
:101760000E210B4804F0FEFB0F210A4804F0FAFB9F
:101770000F21074804F0F6FB502000F009FD641C1F
:10178000032CDEDB4FF4967000F002FD10BD00006C
:10179000000402400000024010B5012000F002F8F1
:1017A00010BD000070B50446002500BF00BFFEF765
:1017B000FBFC054600BF00BF0448046000BF00BF3B
:1017C0002846FEF7F5FC00BF00BF70BD9400002066
:1017D00000BFFEE730B505460C46224600212846EC
:1017E00000F026F830BD00000D480E4901600146AA
:1017F000416000218160C160016141618161C1611D
:1018000001620163C162416207498163C1634FF4B0
:10181000B841016441640146044A11607047000008
:10182000148D0020484541505C8D00209800002018
:101830002DE9F04103460C4617460FB9BDE8F0818B
:1018400003B9FBE70025002202E02D022543521CCC
:10185000042AFAD3384603F0030C1946BCF1000FF2
:1018600008D0624603E001F8014B401E521C08B14B
:10187000042AF8D30E4601E020C6001F0428FBD23C
:10188000314602E001F8014B401E0028FAD100BFAA
:10189000D4E70000B7EE000A734880ED000A9FED20
:1018A000730A80ED010A9FED720A80ED020A9FED36
:1018B000710A80ED030A9FED6F0A80ED040A9FED27
:1018C0006C0A80ED050A9FED6A0A80ED060AB7EE04
:1018D000000A694880ED000A9FED640A80ED010A64
:1018E0009FED630A80ED020A9FED620A80ED030A14
:1018F0009FED600A80ED040A9FED5D0A80ED050A08
:101900009FED5B0A80ED060A9FED5C0A5C4880ED66
:10191000000A9FED5C0A80ED010A9FED550A80EDFB
:10192000020A9FED540A80ED030A9FED570A80EDED
:10193000040A9FED4F0A80ED050A9FED4D0A80EDE8
:10194000060A9FED4E0A514880ED000A9FED4D0AB0
:1019500080ED010A9FED460A80ED020A9FED450ADF
:1019600080ED030A9FED480A80ED040A9FED400ACE
:1019700080ED050A9FED3E0A80ED060A9FED3F0AC5
:10198000434880ED000A9FED3F0A80ED010A9FED7C
:10199000380A80ED020A9FED370A80ED030A9FEDB9
:1019A0003A0A80ED040A9FED320A80ED050A9FEDA8
:1019B000300A80ED060A9FED310A364880ED000AB4
:1019C0009FED300A80ED010A9FED290A80ED020AA1
:1019D0009FED280A80ED030A9FED2B0A80ED040A93
:1019E0009FED230A80ED050A9FED210A80ED060A8E
:1019F0009FED220A284880ED000A9FED220A80ED23
:101A0000010A9FED1B0A80ED020A9FED1A0A80ED84
:101A1000030A9FED1D0A80ED040A9FED150A80ED73
:101A2000050A9FED130A80ED060A9FED140A1B4874
:101A300080ED000A9FED130A80ED010A9FED0C0A6C
:101A400080ED020A9FED0B0A80ED030A9FED0E0A5E
:101A500080ED040A9FED060A80ED050A9FED040A59
:101A600080ED060A70470000740801200AD7233C65
:101A70000000000000007A461C0901206666A63FAF
:101A80008C0901208FC2F53C00806D45FC090120C6
:101A90006C0A0120DC0A0120300B0120840B01209C
:101AA000B7EE000AD84880ED000A9FEDD80A80ED15
:101AB000010A9FEDD70A80ED020A9FEDD60A80ED5C
:101AC000030A9FEDD40A80ED040A9FEDD00A80ED51
:101AD000050A9FEDCE0A80ED060AB0EE000ACE4858
:101AE00080ED000A9FEDC90A80ED010AB7EE080AF1
:101AF00080ED020A9FEDC90A80ED030A9FEDC70A37
:101B000080ED040A9FEDC10A80ED050A9FEDBF0A32
:101B100080ED060AB6EE000AC14880ED000A9FED8E
:101B2000BB0A80ED010A9FEDB90A80ED020A9FED24
:101B3000BB0A80ED030A9FEDB90A80ED040A9FED10
:101B4000B30A80ED050A9FEDB10A80ED060A9FED0C
:101B5000B50AB54880ED000A9FEDAC0A80ED010A98
:101B60009FEDAA0A80ED020A9FEDAC0A80ED030A00
:101B70009FEDAE0A80ED040A9FEDA40A80ED050AF0
:101B80009FEDA20A80ED060AB1EE040AA84880ED96
:101B9000000A9FED9E0A80ED010AB1EE0E0A80ED6B
:101BA000020A9FED9E0A80ED030A9FEDA00A80EDD8
:101BB000040A9FED960A80ED050A9FED940A80EDD8
:101BC000060AB7EE080A9B4880ED000A9FED8F0ACF
:101BD00080ED010A9FED980A80ED020A9FED8F0AC1
:101BE00080ED030A9FED910A80ED040A9FED870ABC
:101BF00080ED050A9FED850A80ED060A9FED890AB2
:101C00008E4880ED000A9FED810A80ED010A9FED6C
:101C10008A0A80ED020A9FED7F0A80ED030A9FED9C
:101C2000830A80ED040A9FED790A80ED050A9FED95
:101C3000770A80ED060A9FED820A824880ED000A4D
:101C40009FED720A80ED010AB0EE0C0A80ED020AE7
:101C50009FED720A80ED030A9FED740A80ED040A7D
:101C60009FED6A0A80ED050A9FED680A80ED060A7D
:101C70009FED730A744880ED000A9FED640A80EDC1
:101C8000010A9FED720A80ED020A9FED640A80ED61
:101C9000030A9FED660A80ED040A9FED5C0A80ED61
:101CA000050A9FED5A0A80ED060AB0EE0C0A684854
:101CB00080ED000A9FED550A80ED010A9FED650A4F
:101CC00080ED020A9FED550A80ED030A9FED620A3E
:101CD00080ED040A9FED4D0A80ED050A9FED4B0A49
:101CE00080ED060AB0EE0C0A5C4880ED000A9FED1C
:101CF000470A80ED010A9FED570A80ED020A9FED29
:101D0000470A80ED030A9FED540A80ED040A9FED17
:101D10003F0A80ED050A9FED3D0A80ED060AB0EE10
:101D2000040A4F4880ED000A9FED380A80ED010A51
:101D30009FED410A80ED020A9FED380A80ED030A0B
:101D40009FED480A80ED040A9FED300A80ED050AF8
:101D50009FED2E0A80ED060AB0EE040A424880ED9F
:101D6000000A9FED2A0A80ED010A9FED330A80EDFB
:101D7000020A9FED2A0A80ED030A9FED2C0A80EDEE
:101D8000040A9FED220A80ED050A9FED200A80EDEE
:101D9000060AB0EE000A354880ED000A9FED1B0AE6
:101DA00080ED010AB7EE000A80ED020A9FED1B0AE2
:101DB00080ED030A9FED2B0A80ED040A9FED130AC4
:101DC00080ED050A9FED110A80ED060AB0EE000ACB
:101DD000274880ED000A9FED0D0A80ED010AB7EE5D
:101DE000000A80ED020A9FED0D0A80ED030A9FEDC7
:101DF0001D0A80ED040A9FED050A80ED050A9FED9E
:101E0000030A80ED060A70473C080120000000002C
:101E10003333834000007A43900801200000FA43E6
:101E2000AC080120CDCC4C3FC8080120000048433D
:101E3000E40801203809012033337340540901209C
:101E4000CDCC0C40A8090120C4090120CDCCCC4048
:101E5000180A01209A99B94000009643340A0120DB
:101E6000880A01200000FA44A40A0120F80A01208F
:101E70004C0B01209FED740A744880ED000AB7EE08
:101E8000000A80ED010A9FED720A80ED020A9FEDC3
:101E9000710A80ED030A9FED6F0A80ED040A9FED41
:101EA0006C0A80ED050A9FED6A0A80ED060A9FED37
:101EB0006A0A6A4880ED000AB7EE000A80ED010A5E
:101EC0009FED630A80ED020A9FED620A80ED030A2E
:101ED0009FED600A80ED040A9FED5D0A80ED050A22
:101EE0009FED5B0A80ED060A9FED5D0A5D4880ED7F
:101EF000000AB7EE080A80ED010A9FED550A80ED51
:101F0000020A9FED590A80ED030A9FED580A80ED01
:101F1000040A9FED4F0A80ED050A9FED4D0A80ED02
:101F2000060A9FED530A534880ED000AB7EE000AF7
:101F300080ED010A9FED460A80ED020A9FED4B0AF3
:101F400080ED030A9FED490A80ED040A9FED400AE7
:101F500080ED050A9FED3E0A80ED060A9FED440ADA
:101F6000454880ED000AB7EE000A80ED010A9FEDBA
:101F7000380A80ED020A9FED3C0A80ED030A9FEDCE
:101F80003B0A80ED040A9FED320A80ED050A9FEDC1
:101F9000300A80ED060A9FED360A384880ED000AC7
:101FA000B7EE000A80ED010A9FED290A80ED020AD2
:101FB0009FED2D0A80ED030A9FED2C0A80ED040AA7
:101FC0009FED230A80ED050A9FED210A80ED060AA8
:101FD0009FED1D0A2A4880ED000AB7EE000A80ED49
:101FE000010A9FED1B0A80ED020A9FED1F0A80ED9A
:101FF000030A9FED1E0A80ED040A9FED150A80ED8D
:10200000050A9FED130A80ED060A9FED0F0A1D4891
:1020100080ED000AB7EE000A80ED010A9FED0C0A80
:1020200080ED020A9FED100A80ED030A9FED0F0A72
:1020300080ED040A9FED060A80ED050A9FED040A73
:1020400080ED060A70470000000048435808012050
:102050000000000000401C460000FA430009012077
:10206000000016447009012000007A4500409C459C
:1020700000009643E0090120500A0120C00A012017
:10208000140B0120680B01202DE9F04385B00446B4
:102090000D4616461F464FF004084FF000094FF456
:1020A0000070009000208DF808008DF809000820CD
:1020B0008DF80A00200A8DF80B00E1B28DF80C10A3
:1020C000290A8DF80D10E9B28DF80E10310A8DF83D
:1020D0000F10F1B28DF81010390A8DF81110F9B205
:1020E0008DF8121004E069460748FEF7DFFF8046CE
:1020F000B8F1040F05D14846411C1FFA81F9FF28A9
:10210000F1D105B0BDE8F083006800402DE9F0434F
:1021100085B004460D4616461F464FF004084FF0A2
:10212000000940F2FF10009000208DF808008DF8A3
:10213000090008208DF80A00200A8DF80B00E1B292
:102140008DF80C10290A8DF80D10E9B28DF80E10DB
:10215000310A8DF80F10F1B28DF81010390A8DF890
:102160001110F9B28DF8121004E069460748FEF725
:102170009DFF8046B8F1040F05D14846411C1FFA67
:1021800081F9FF28F1D105B0BDE8F0830068004077
:1021900007E049F63F4101E04A1E91B20029FBDC0D
:1021A000401E0028F5D170477047000070B500212F
:1021B00000230F22C4781CB3174C246804F4E06495
:1021C000C4F5E064C4F30721C1F10404E3B20A4199
:1021D00044789C40E1B28478144021430C07210EDE
:1021E0000E4C05786155047804F01F050124AC40BD
:1021F00005786D11AD0005F1E025C5F8004109E055
:10220000047804F01F050124AC40054D06787611D2
:1022100045F8264070BD00000CED00E000E400E051
:1022200080E100E002490143024A1160704700006A
:102230000000FA050CED00E07047000010B50348FF
:10224000006810B101480068804710BDB000002050
:1022500070B5044600F0A8F80020414908704149D3
:102260000870414908704149086041490860414986
:10227000087041490870414908704148006858B1E8
:102280004048056845B13E48066803E0761E0020D8
:1022900028602D1D002EF9D100203B4908603B49E4
:1022A00008603B4908603B4908603B4908603B497E
:1022B00008603B4908603B49087001F0E9FF02F003
:1022C000C9F8204601F088F9208800B170BD204689
:1022D00001F05EFD208800B1F8E7204601F064FDC2
:1022E000208800B1F2E7204601F048FE208800B1C6
:1022F000ECE7204601F0FCFF208800B1E6E720462D
:1023000002F066F9208800B1E0E7204602F088FC80
:10231000208800B1DAE7204601F0A6FC208800B151
:10232000D4E7204601F0CAFA208800B1CEE7204663
:1023300003F0E6FB208800B1C8E7204602F0B4FBBA
:10234000208800B1C2E7204603F036FC208800B1A7
:10235000BCE701F067F8FFF76FFF00BFB6E70000CA
:10236000C4000020C5000020FE0000204C01002019
:1023700050010020F2000020F3000020F4000020B3
:102380009876000894760008A4000020A800002099
:10239000AC000020B0000020B4000020B8000020F5
:1023A000BC0000202A010020064800680649096890
:1023B00000EB8100054908600846006820F007002E
:1023C0000860704794760008987600085401002051
:1023D00010B500242D480078012800D010BD00BFA2
:1023E000FDF7E2FE044600BF2948007828B900BF87
:1023F0002046FDF7DDFE00BFF0E725480078401ECF
:102400002349087008460078002805DD00BF2046F3
:10241000FDF7CEFE00BFE1E71E480078002805DD8D
:1024200000BF2046FDF7C4FE00BFD7E701F01CFF48
:10243000194908700846007800EB4000174951F828
:102440002000174908600846006816490968884254
:1024500005D100BF2046FDF7ABFE00BFBEE7104828
:102460000068D0F89000401C0D490968C1F8900040
:102470000D480068401C0C490860FDF735FF00BF9F
:102480002046FDF795FE00BF00BFA7E7C50000206E
:10249000C4000020FE000020F30000207001012095
:1024A000500100204C0100202001002010B5002424
:1024B0001F480078002800DD10BD1E480078002865
:1024C00000DDF9E700BFFDF76FFE044600BF01F035
:1024D000CBFE194908700846007800EB4000174908
:1024E00051F8200016490860084600681549096837
:1024F000884205D100BF2046FDF75AFE00BFDBE74A
:102500000F480068D0F89000401C0D490968C1F8D8
:1025100090000D480068401C0B490860FDF7DFFE85
:1025200000BF2046FDF744FE00BF00BFC4E7000027
:10253000C4000020FE000020F300002070010120F4
:10254000500100204C0100202001002070B50446FD
:10255000002517480078002803DD46F662502080E9
:1025600070BD14480078012803D045F689602080AA
:10257000F6E711480078FA2803DB45F209202080AD
:10258000EEE700BF00BFFDF70FFE054600BF00BF2E
:1025900009480078401C0849087000BF00BF284661
:1025A000FDF706FE00BF00BF0020208000BFD7E778
:1025B000C4000020C5000020FE00002070B50446C5
:1025C00000251F480078002803DD46F6655020806E
:1025D00070BD1C480078012803D045F68960208032
:1025E000F6E71948007818B946F664502080EFE7FE
:1025F00000BF00BFFDF7D8FD054600BF00BF124871
:102600000078401E104908700846007800280ADD4E
:1026100000BF00BF2846FDF7CBFD00BF00BF46F658
:1026200063502080D4E700BF00BF2846FDF7C0FDFF
:1026300000BF00BFFFF73AFF0020208000BFC7E7C0
:10264000C4000020C5000020FE00002010B5044694
:1026500012480078E8B901F007FE114908700846F1
:102660000078104908700E48007800EB40000E49D1
:1026700051F820000D490860084600680C490860C0
:10268000012006490870FDF719FE43F699202080C5
:1026900002E045F68A60208010BD0000C5000020E1
:1026A000F3000020F2000020700101205001002002
:1026B0004C0100202DE9F04107464FF0000800BF13
:1026C00000BFFDF771FD804600BF00BF00203B4901
:1026D00008603B4908803B4908803B4908603B490A
:1026E00008603B4908603B49088100BF00BF404685
:1026F000FDF75EFD00BF00BF00BF00BFFDF754FD4A
:10270000804600BF00BF3448046800BF00BF404699
:10271000FDF74EFD00BF00BF20E000BF00BFFDF78A
:1027200043FD804600BF00BF002044F8780F2063BF
:10273000A061A082E0826062A062FEF7E3FD2062F9
:10274000783C04F164060020B081D4F8B84000BFA2
:1027500000BF4046FDF72CFD00BF00BF002CDCD1C0
:1027600000BF00BFFDF720FD804600BF00BF1B4833
:10277000056800BF00BF4046FDF71AFD00BF00BF5F
:1027800012E000BF00BFFDF70FFD804600BF00BF95
:1027900005F120060020B081AD6900BF00BF4046B2
:1027A000FDF706FD00BF00BF002DEAD103F084F85D
:1027B00003F0FEFA00203880BDE8F081D800002048
:1027C000D20000200A0100201C010020300100205E
:1027D0003C0100206401012024010020F8000020B9
:1027E00010B50348006810B101480068804710BD6B
:1027F000B40000202DE9FF4F87B004469046DDE984
:102800001BA5DDE91496179F0020039083480078EC
:10281000002805DD47F24A1028800BB0BDE8F08F94
:102820001CB947F2AD102880F7E7B8F1000F03D1CB
:1028300047F24F102880F0E71EB946F62F60288037
:10284000EBE777480068874203D246F6306028807D
:10285000E3E71698B84203D346F631602880DCE7F8
:10286000B9F1400F03D346F273202880D5E7B9F1C0
:10287000000F06D16B48844203D046F273202880B3
:10288000CBE7B9F13F0F06D16748844203D046F247
:1028900073202880C1E7204602F0D2F9002028806A
:1028A0000AF0010090B10AF0020078B1059600200C
:1028B000069008E00021059801600598001D05902C
:1028C0000698401C06900698B842F3D3169806EB7B
:1028D00080000490CDE9007A32464046049B0A9974
:1028E00000F026FB0590C4F828800A98E06208985A
:1028F000206284F83790059820600498A0601998A9
:1029000060651A9860606662A763A4F83CA04FF007
:10291000000B08E0002104F17C0040F82B100BF1C3
:10292000010000F0FF0BBBF1000FF3D004F16400D5
:10293000189901F099FA204600F080F800BF00BF16
:1029400000BFFDF731FC039000BF00BF374800789F
:10295000401C3649087000BF00BF0398FDF728FCF3
:1029600000BF00BF00BF94F8370001F09DFC204677
:1029700001F0B8FD204602F019F92D480088401CEE
:102980002B4908802B48007801282DD000BF00BFBC
:1029900000BFFDF709FC039000BF00BF234800788B
:1029A000401E2249087008460078A0B922480088D5
:1029B000002809DD00BF00BF0398FDF7F9FB00BF49
:1029C00000BF01F0DBFD0DE000BF00BF0398FDF785
:1029D000EFFB00BF06E000BF00BF0398FDF7E8FB78
:1029E00000BF00BF00BF18E700BF00BF00BFFDF77A
:1029F000DBFB039000BF00BF0C480078401E0B4972
:102A0000087000BF00BF0398FDF7D2FB00BF00BFF6
:102A100000BFFFF74BFD00BFFFE60000C400002031
:102A2000C4760008A4000120E4FF0020FE0000207E
:102A300028010020C5000020D000002010B5044669
:102A40000348006818B1204601490968884710BD4D
:102A5000A400002070B504460D46002667480078A3
:102A6000002803DD47F24E10288070BD6448844280
:102A700003D147F24C102880F7E76248844203D123
:102A800047F24D102880F0E77CB900BF00BFFDF78A
:102A90008BFB064600BF00BF5B48046800BF00BF59
:102AA0003046FDF785FB00BF00BF00BF00BF00BF81
:102AB000FDF77AFB064600BF00BF54480078401C73
:102AC0005249087000BF00BF3046FDF771FB00BFE0
:102AD00000BF00BF94F8360008282DD2DFE800F0D0
:102AE00004090E10080A0F11204601F019FD54E0E8
:102AF00053E000BF204602F0C3FE4EE000BF00BF1F
:102B000000BF204602F0BCFE94F83400082810D222
:102B1000DFE800F004070508090A0B0600BF00BF44
:102B200008E000BF00BF00BF00BF204601F0EDFA83
:102B300000E000BF00BF30E000BF00BF00BFFDF7F6
:102B400033FB064600BF00BF30480078401E2F49C7
:102B5000087008460078A0B92D480088002809DDD3
:102B600000BF00BF3046FDF723FB00BF00BF01F0F0
:102B700005FD0DE000BF00BF3046FDF719FB00BFAB
:102B800006E000BF00BF3046FDF712FB00BF00BFEC
:102B900000BF46F62D60288067E700BF04F164009F
:102BA00001F040F9204600F037F8204602F016F810
:102BB00018480088401E17490880204602F040F857
:102BC000FF2084F8360000BF00BF00BFFDF7ECFA1D
:102BD000064600BF00BF0D480078401E0B49087034
:102BE00000BF00BF3046FDF7E3FA00BF00BF00BFE3
:102BF00000202880FFF75AFC00BF36E7C400002001
:102C0000E4FF0020A40001204C010020FE00002071
:102C1000D00000202801002010B5044603480068B9
:102C200018B1204601490968884710BDA800002056
:102C300010B504460348006818B1204601490968E8
:102C4000884710BDAC0000202DE9F04780460E46B5
:102C500014461D464FF000097D480078002805DD28
:102C600046F2AE1028800020BDE8F0871EB1B6F510
:102C7000004F02D100E000BF04E045F62560288047
:102C80000020F1E700BF0CB10020206000BF00BFB2
:102C9000FDF78AFA814600BF00BF6E480068406CAD
:102CA000A8B36C480068406C401E6A4909684864D3
:102CB00068480068476C1CB166480068006C20607A
:102CC000FEF720FB63490968096C401A61490968ED
:102CD000C1F8A4005F480068D0F8A8005D49096801
:102CE000D1F8A410884207D25A480068D0F8A4004E
:102CF00058490968C1F8A80000BF00BF4846FDF761
:102D000057FA00BF00BF002028803846ACE7FFE735
:102D100006F4004058B100BF00BF4846FDF748FA2E
:102D200000BF00BF46F2B010288000209CE74A4850
:102D3000007800280BDD00BF00BF4846FDF738FAD9
:102D400000BF00BF46F66350288000208CE700BF1C
:102D500041480078401C4049087000BF00BF484609
:102D6000FDF726FA00BF00BF00BF4346072200213F
:102D7000084601F00FF900BF00BF00BFFDF714FACD
:102D8000814600BF00BF34480078401E32490870B9
:102D900000BF00BF4846FDF70BFA00BF00BF00BFF1
:102DA000FFF784FB00BF00BFFDF7FEF9814600BFBF
:102DB00000BF2848006890F8350020B1012826D0CF
:102DC000032834D12CE0FCB122480068006C20605C
:102DD000FEF798FA1F490968096C401A1D490968ED
:102DE000C1F8A4001B480068D0F8A8001949096878
:102DF000D1F8A410884207D216480068D0F8A40081
:102E000014490968C1F8A8000020288013E01CB10B
:102E100010480068006C206046F2A91028800AE083
:102E20000CB10020206047F2D920288003E046F64C
:102E30002E60288000BF00BF06480068476C00BFB6
:102E400000BF4846FDF7B4F900BF00BF38460BE7A6
:102E5000C40000204C010020FE0000202DE9F047B6
:102E600005460E4617461C464FF0000A2E480078CD
:102E7000002804DD47F259102080BDE8F0871EB914
:102E800046F2D5202080F8E71FB946F2D5202080F1
:102E9000F3E700BF00BFFDF787F9824600BF00BF20
:102EA0000DB922480568286868B900BF00BF5046C0
:102EB000FDF77EF900BF00BF00203060386047F2A8
:102EC00052102080D9E795F83C0000F0010068B965
:102ED00000BF00BF5046FDF76BF900BF00BF0020E8
:102EE0003060386047F254102080C6E700BF00BF52
:102EF0005046FDF75DF900BF00BF4FF00008D5F860
:102F0000249003E009F1040908F10108D9F8000050
:102F10000028F7D0C6F80080A86BA0EB0800386046
:102F20000020208000BFA8E7C40000204C01002042
:102F3000F0B50446DDE9055602EB850020F00700F8
:102F40004FF0807C071F3846C7F800C0071F38467F
:102F50003C60DFF8A8C0071F3846C7F800C04FF034
:102F6000123C071F3846C7F800C04FF0033C071F4C
:102F70003846C7F800C04FF0023C071F3846C7F874
:102F800000C0071F38463B60071F384639604FF0C6
:102F9000113C071F3846C7F800C04FF0103C071F10
:102FA0003846C7F800C04FF0093C071F3846C7F83D
:102FB00000C04FF0083C071F3846C7F800C04FF06C
:102FC000073C071F3846C7F800C04FF0063C071FF4
:102FD0003846C7F800C04FF0053C071F3846C7F811
:102FE00000C04FF0043C071F3846C7F800C06FF020
:102FF000020C071F3846C7F800C0F0BD715000082A
:103000007FB505460C461248854203D147F25B1056
:1030100020807FBD0F48854203D147F25C1020809D
:10302000F7E70D48007800280BDD002000900190A4
:10303000034602462946CDE90204084800F076FC22
:10304000E7E72146284602F081FA00BFE1E70000E9
:10305000E4FF0020A4000120C40000205453555375
:1030600010B51548006810B1134800688047FEF796
:1030700049F904461148006811490968884215D089
:103080000E480068D0F89800201A0C490968C1F869
:1030900094000A480068D0F89C0008490968D1F8F3
:1030A0009410084405490968C1F89C000448006868
:1030B000C0F8984010BD0000B80000204C0100206E
:1030C000500100202DE9F04105460E461446002728
:1030D0003F480078002804DD47F275202080BDE8D5
:1030E000F0813C480078002803DD46F663502080DC
:1030F000F5E736B1022E05D0042E0AD0082E09D1EC
:1031000001E000BF00BF1DB947F27E202080E6E746
:1031100004E003E045F625602080E0E700BF00BF43
:1031200000BF00BFFDF740F8074600BF00BF2948B9
:103130000078401C2749087000BF00BF3846FDF7E3
:1031400037F800BF00BF00BF01202349096881F89C
:1031500036002346324629461F48006802F0B2FA7C
:103160002088A8B100BF00BF00BFFDF71DF80746CB
:1031700000BF00BF17480078401E1649087000BF06
:1031800000BF3846FDF714F800BF00BF00BFA6E738
:103190001148006801F0C4F900BF00BF00BFFDF78F
:1031A00003F8074600BF00BF0A480078401E0949DF
:1031B000087000BF00BF3846FCF7FAFF00BF00BF31
:1031C00000BFFFF773F90020208000BF87E70000F1
:1031D000C4000020FE0000204C0100202DE9FF5F0C
:1031E00005460E4617469846DDE90EA400200090DD
:1031F00072480078002804DD47F275202080BDE881
:10320000FF9F6F480078002803DD46F6635020805A
:10321000F5E70AF00E0BBBF1000F09D0BBF1020F6E
:1032200007D0BBF1040F10D0BBF1080F0ED101E0A5
:1032300000BF00BFB8F1000F06D12FB926B91DB9E4
:1032400047F27E202080DAE704E003E045F62560BF
:103250002080D4E700BF2AF01E0008B1012000E062
:10326000002003900398012803D145F625602080B3
:10327000C5E7CAF3001002900298C0B9B8F57A7F8A
:1032800003D347F27B202080B9E73B2F03DD47F2D1
:103290007A202080B3E73B2E03DD47F2792020809F
:1032A000ADE7632D12DD47F278202080A7E742F2D8
:1032B0000F70864203DD47F2792020809FE7B5F545
:1032C0007A7F03DB47F27820208098E73D48D0F8EA
:1032D00000904FF4FA70B0FBF9F0404400FB09F0A5
:1032E0004FF47A71B0FBF1F14FF461606843C6EBC3
:1032F000061200EB8200384400FB0910019001988F
:10330000002856D000BF00BF00BFFCF74DFF009063
:1033100000BF00BF2A480078401C2949087000BF40
:1033200000BF0098FCF744FF00BF00BF00BF0120B2
:103330002549096881F8360023465A4622480199F2
:10334000006802F0BFF92088A8B100BF00BF00BF2D
:10335000FCF72AFF009000BF00BF19480078401E0C
:103360001749087000BF00BF0098FCF721FF00BF9D
:1033700000BF00BF43E71448006801F0D1F800BF68
:1033800000BF00BFFCF710FF009000BF00BF0C485B
:103390000078401E0A49087000BF00BF0098FCF783
:1033A00007FF00BF00BF00BFFFF780F800202080AC
:1033B00002E047F27E20208000BF20E7C40000200A
:1033C000FE000020C87600084C01002010B586B031
:1033D00000F01EF8FDF796FF044605A800210091B5
:1033E000CDE9011403900748007800EB4000064A3D
:1033F00002EB800100231A46044800F097FA06B059
:1034000010BD0000F2000020700101205449434B20
:1034100010B50348006810B101480068804710BD2E
:10342000BC000020254A2649264A274A2749284A1F
:103430002848294A294A2A4A2A4A2B482B482C48F4
:103440002C4A2D482D4A2E482E4A2F482F483048C6
:103450003048314A314A324A3248334A334A344892
:10346000344835483548364836483748374A384A68
:10347000384A394A39483A483A483B4A3B4A3C4A32
:103480003C483D483D483E493E483F4A3F4A404A05
:10349000404A414A414A424A4248434A434A4448D0
:1034A0004448454A454A4648464A474A47484848A4
:1034B000484800BF00BF00BF704700000C770008FD
:1034C000747800080D7700080E7700081077000860
:1034D000147700081877000815770008407700086F
:1034E00041770008427700084477000846770008D3
:1034F000487700084A7700084C7700086C77000886
:103500006E770008707700087277000874770008FB
:103510007677000878770008A4770008A577000878
:10352000A6770008A8770008AA770008AB770008FC
:10353000AC770008AE770008B0770008B2770008D3
:10354000B4770008B6770008B8770008E877000875
:10355000E9770008EA770008EB770008EC770008C5
:10356000EE770008F077000818780008197800084E
:103570001A7800081B7800081C7800081E780008DC
:1035800020780008247800082578000826780008AC
:103590002778000828780008297800082A78000889
:1035A0002B7800082C7800082E7800082F78000867
:1035B0003078000832780008347800083578000840
:1035C000387800086C7800086D7800086E7800087C
:1035D00070780008727800080021034A1160034ADD
:1035E0001180018070470000DC000020E000002016
:1035F0002DE9F04F85B00446894692469B46DDF89A
:1036000038800020009000BF00BFFCF7CDFD009087
:1036100000BF00BFBAF1000F0AD0BAF1010F0DD000
:10362000BAF5004F05D06FF40040504460B906E091
:1036300000BF206A40EA0900206214E000BF206A4F
:1036400020EA090020620EE000BF00BF0098FCF7EE
:10365000AFFD00BF00BF45F62560A8F800000020C0
:1036600005B0BDE8F08F00BFC4F824B004F1080035
:1036700001900198008958B900BF00BF0098FCF77D
:1036800097FD00BF00BF0020A8F80000206AE7E710
:1036900000BF61480078401C5F49087000BF00BF50
:1036A0000098FCF785FD00BF00BF00BF01980768C8
:1036B000BD687FE07868029095F8880000F00F0000
:1036C00003900398012821D002282ED0042802D08C
:1036D000082836D10EE0206AD5F8801000EA0106ED
:1036E000D5F88000B04204D15A463146284600F051
:1036F00097F859E0206AD5F8801000EA010626B153
:103700005A463146284600F08BF84DE0D5F8800047
:10371000216A20EA0106D5F88000B04204D15A4659
:103720003146284600F07CF83EE0D5F88000216A5A
:1037300020EA010626B15A463146284600F070F8C4
:1037400032E000BF00BF00BFFCF72EFD009000BFBD
:1037500000BF31480078401E2F49087008460078A5
:10376000A0B92E480088002809DD00BF00BF0098DE
:10377000FCF71EFD00BF00BF00F000FF0DE000BF22
:1037800000BF0098FCF714FD00BF06E000BF00BFBB
:103790000098FCF70DFD00BF00BF00BF43F6FF20FF
:1037A000A8F8000000205BE700BF029F0FB1BD68D2
:1037B00000E00025002D7FF47DAF00BF00BF00BFFB
:1037C000FCF7F2FC009000BF00BF13480078401ED9
:1037D0001149087000BF00BF0098FCF7E9FC00BF6A
:1037E00000BF00BF0AF4004008B9FEF75FFE00BF4B
:1037F00000BFFCF7D9FC009000BF00BF206A049016
:1038000000BF00BF0098FCF7D3FC00BF00BF002042
:10381000A8F80000049823E7FE000020D000002054
:1038200070B504460E461546343426650020607097
:103830002070E560A078343C082816D2DFE800F05C
:10384000040508090706101100BF00BF00BF0DE006
:1038500000BF204601F05EFB002084F8360005E042
:1038600000BF042084F8360000E000BF00BF2046FF
:1038700000F04BFC70BD0000002400BF19E000BF49
:1038800000BFFCF791FC044600BF00BF0948006878
:10389000401C0849086008480068401C0649086048
:1038A00000BF00BF2046FCF783FC00BF00BFFEF74F
:1038B000C5FCE4E7C00000200C01002010B58AB070
:1038C000044600200E4908600B2000210591CDE937
:1038D0000704069108460B4909680B4A12680B4B0E
:1038E0001B68CDE90132CDE903103F200023084ACF
:1038F00008A100900C48FEF77DFF0AB010BD000043
:10390000C0000020707600086C7600086876000819
:103910007938000875432F4F532D49494920496490
:103920006C65205461736B00E4FF00202DE9F84FB3
:1039300004460D4616461F46DDE90BABDDF8289020
:10394000DDF834800020009000BF00BFFCF72CFCA5
:10395000009000BF00BF2B4800882B49098888428F
:103960003EDA28480088401C2649088027480088FD
:103970000988884203DA23480088244908802448BB
:103980000068046022480068856021480068C660BD
:103990001F48006807821E480068C0F814901C4841
:1039A0000068A0F818A01A480068C0F81CB01848B1
:1039B00000684068164908600120164908811648C9
:1039C00008604860002000F06FFC1448007818B1CF
:1039D00012480078124908700020A8F8000008E09A
:1039E00010480088401C0F49088044F25360A8F832
:1039F000000000BF00BF0098FCF7DAFB00BF00BF6B
:103A0000BDE8F88FD00000207C760008D2000020AE
:103A1000C800002070010120A4000120F200002055
:103A2000F4000020D40000203EB555480068554AF7
:103A30000168881A914279D00FDC53480844002865
:103A40003ED052490844A8B151490844002860D0EA
:103A50005049084400286AD13FE04F4908440028F3
:103A600050D04E490844002862D04D4908440028EF
:103A7000F1D110E002A8424D00902D68EB69404D55
:103A80002D682A8B3E4D2D6869693D4D2D68A868CB
:103A9000FFF7AEFD71E002A939480068C069384DF2
:103AA000CDE900012D682B8B354D2D682A8A344DC8
:103AB0002D68E968324D2D68A86800F025FC5CE0AF
:103AC0002F4B1B68DA692E4B1B68198B2C4B1B681C
:103AD000986802AB00F088FD4FE002A92848006812
:103AE000C069274DCDE900012D682B8B244D2D6831
:103AF0002A8A234D2D68E968214D2D68A86801F0B8
:103B000003F93AE01E490968886802A901F010FA31
:103B100033E01B4B1B68DA69194B1B68198B184B78
:103B20001B68986802AB01F0AFFA26E007E023E0DB
:103B300013490968886802A901F008FD1DE01048D2
:103B4000006802AB0021C269164801F09DFA1648D0
:103B50000068401E144908600846006858B91348B8
:103B600000680860FDF7CEFB044602AB2246002148
:103B70000F4801F089FA00E000BF00BF3EBD000021
:103B8000CC0000205449434BADBAB2BE0DF90BFA3C
:103B9000F2F8F7FF0006F6FF00F7FDF700FFEFFF72
:103BA00003FE0FFE300501204801002044010020E3
:103BB000F0050120002700BF4CE0002648E000BFD0
:103BC00000BFFCF7F1FA074600BF00BF224800889B
:103BD00088B90020214908810860486000F076FB20
:103BE00000BF00BF3846FCF7E3FA00BF00BFFEF796
:103BF0005DFC01262CE000BF00BF3846FCF7D8FA78
:103C000000BF00BFFDF77EFB0546FFF70DFFFDF788
:103C100079FB441B12480068A04201D2104804609E
:103C200000BF00BFFCF7C0FA074600BF00BF0D4849
:103C3000006840680B49086007480088401E064934
:103C4000088000BF00BF3846FCF7B2FA00BF00BFD3
:103C5000002EB4D0B1E70000D00000207001012098
:103C6000D8000020CC000020F0B589B00546002027
:103C7000314908803148006820B944F252602880F8
:103C800009B0F0BD2E480088022803DA44F25460DF
:103C90002880F5E700202B4908602848046826465C
:103CA000203600270CE0284820600020A060E0605B
:103CB000208260612083666020342036781C87B2C1
:103CC0001F4800888742EEDB203C1C48066866607F
:103CD0001E4806601E48066000201E4908801E49D6
:103CE00008801E48006818B944F255602880C7E76C
:103CF0001B4800681B490968884203D244F2566099
:103D00002880BDE7032000210591CDE90705069134
:103D100013480068144A1268104B1B68CDE9030170
:103D2000CDE9013200910B46104A11A11748FEF768
:103D300061FD00BFA4E70000D400002078760008F1
:103D40007C760008D80000204E4F4E45C800002069
:103D5000CC000020D0000020D20000208476000893
:103D60008C760008C476000888760008B53B000809
:103D700075432F4F532D49494920495352205175BE
:103D8000657565205461736B00000000A40001207C
:103D90000021034A1160034A11800180704700002E
:103DA000E4000020E800002070B501461A4D2D689F
:103DB0001DB945F21E750D8070BD184D2D881DB9B9
:103DC00045F21D750D80F7E7134D28682A681032FB
:103DD000124D2D886D1EACB2002308E00260002554
:103DE00045600581C560103010325D1CABB2A34246
:103DF000F4DB0025056045600581C560064D2D6832
:103E0000074E3560054D2D88B5800025F58035813C
:103E10000D8000BFD0E70000A8760008A07600085B
:103E20006401012010B5014648894B89002B17DD3C
:103E30000A680C4B1B6813600A4C4B6823602346CE
:103E4000DB884C891B1B074CE38023469B884C89ED
:103E50002344044CA38000234B818B810B604B6077
:103E600010BD000064010120018100224281828195
:103E700002604260704700002DE9F0410D46DDE927
:103E80000674B0F80AC0B0F80880C44505DB46F2F5
:103E9000935CA4F800C0BDE8F081DFF8DCC0BCF89A
:103EA00004C0BCF1000F04D145F21D7CA4F800C091
:103EB000F1E7DFF8C4C0DCF80010DFF8BC80D1F80F
:103EC00000C0C8F800C0C446BCF804C0ACF1010C86
:103ED000A8F804C0C446BCF806C00CF1010CA8F850
:103EE00006C0C446BCF808C0B8F80680C44507DA66
:103EF000DFF884C0BCF806C0DFF87C80A8F808C0F2
:103F0000B0F80AC0BCF1000F0AD1016041604FF067
:103F1000010CA0F80AC04FF0000CC1F800C017E077
:103F200003F0100CBCF1000F07D10668316001608E
:103F30004FF0000CC1F800C004E0D0F804C0C1F894
:103F400000C04160B0F80AC00CF1010CA0F80AC032
:103F5000B0F80CC0B0F80A80C44503DAB0F80AC063
:103F6000A0F80CC04D600A81CF604FF0000CA4F89F
:103F700000C000BF8FE70000640101200021034A58
:103F80001160034A1180018070470000EC0000209E
:103F9000F00000202DE9F04105460C4616461F466C
:103FA0001548006880F8346000201349096881F8DA
:103FB000350039461048006800F0DCFD6CB104F1B2
:103FC0000808EC60012229460B48006800F016F84A
:103FD0002946404600F066F806E0002006490968D8
:103FE000C88705490968086303480168204600F04E
:103FF00019F8BDE8F08100004C01002010B5C2871F
:10400000016300230AE000244C600C600C614C61E9
:104010000C83CC61886020315C1CA3B29342F2DB3C
:1040200010BD000030B548B14568C1F8BC5000F182
:104030000804226893681D6AC56113E091F8345042
:10404000022D02D0072D08D103E007A5C1F8BC500E
:1040500007E007A5C1F8BC5003E008A5C1F8BC50B3
:1040600000BF00BF30BD00005461736B20510000E1
:104070005461736B2053656D000000002000000048
:1040800030B507A5C1F8BC5000F1080422681AB188
:1040900093681D6AC56101E001A5C56130BD0000DE
:1040A00020000000F0B58E6896F8375007893FB9B8
:1040B0000127078100274F600F600160416023E006
:1040C00007897F1C0781026806E0946894F83770BE
:1040D000AF4200DD02E05268002AF6D100BF32B9DB
:1040E00000274F6043680B60596041600CE017681F
:1040F0002FB9116000270F604A60016004E0136867
:104100000B604A6059601160F0BD2DE9F041044632
:10411000256BE68F0AE0D5F80C8008F108072946E0
:10412000384600F00AF82035701E86B2002EF2DC08
:104130000020E0872063BDE8F08110B50489012CE0
:1041400003D100240460446011E00C6824B94A687B
:104150000024146002600AE04C6824B90B68002453
:104160005C60436003E00B684A685A60136004892E
:10417000641E048100244C600C6010BD2DE9F843DE
:1041800006460C4617469846089D94F836000828BF
:1041900050D2DFE800F00405080906072B2C00BF09
:1041A00000BF00BF47E000BF94F83400032807D1E8
:1041B00043463A4621463046009500F03FF803E07A
:1041C000E765A4F86080256436B12046FFF79DFFBF
:1041D00021463046FFF754FF204600F09BFE0020AA
:1041E0003434A070607004F8340924E000BF94F8FF
:1041F0003400032807D143463A462146304600950D
:1042000000F01CF803E0E765A4F860802564204610
:1042100001F036FB36B12046FFF777FF21463046E6
:10422000FFF72EFF04203434A0700020607004F8E3
:10423000340900E000BF00BFBDE8F883F0B50446D4
:10424000059E086BCD8F0AE0C768A74204D10461C0
:1042500042610383C66104E020306F1EBDB2002DB1
:10426000F2DC00BFF0BD000070B50025074C03E094
:1042700005F12000C5B2241D20680028F8D0206870
:10428000FBF79DFF2844C5B2284670BD9C00002066
:10429000002004E00021034A42F82010401C0228BC
:1042A000F8D370479C00002030B5420900F01F038E
:1042B0000121C3F11F04A140034C54F822400C43D8
:1042C000014D45F8224030BD9C00002030B5420928
:1042D00000F01F030121C3F11F04A140034C54F857
:1042E00022408C43014D45F8224030BD9C00002007
:1042F0000021034A1160034A1180018070470000C9
:10430000F8000020FC0000202DE9F04F85B00746A2
:104310008A4693461C460020029000BF00BF00BFA3
:10432000FBF742FF029000BF00BF48480078401CE6
:104330004649087000BF00BF0298FBF739FF00BF75
:1043400000BF00BF07F108063089002842D104F001
:10435000100010B94FF0000801E04FF01008DDE93F
:104360000E0143465A46CDE90001514607F12000AF
:10437000FFF782FD00BF00BF00BFFBF715FF0290F3
:1043800000BF00BF31480078401E30490870084621
:104390000078A0B92E480088002809DD00BF00BFC2
:1043A0000298FBF705FF00BF00BF00F0E7F80DE043
:1043B00000BF00BF0298FBF7FBFE00BF06E000BF96
:1043C00000BF0298FBF7F4FE00BF00BF00BF05B0BE
:1043D000BDE8F08F04F4007008B1358900E00125D4
:1043E000D6F8009011E0D9F808000390D9F804003D
:1043F00004900E985B465246009038460399FFF7AA
:10440000BDFEDDF81090681E85B2002DEBD100BF17
:1044100000BF00BFFBF7C8FE029000BF00BF0B4803
:104420000078401E0949087000BF00BF0298FBF7E2
:10443000BFFE00BF00BF00BF04F4004008B9FEF794
:1044400035F800210F98018000BFC0E7FE00002072
:10445000D000002000210AE001EB4102054B03EBF4
:10446000820000220281026042604A1CD1B24029CF
:10447000F2D370477001012010B5044694F837005C
:10448000FFF712FF94F8370005490978884203D1F5
:10449000204600F027F802E0204600F003F810BDA7
:1044A000F200002010B590F8373003EB43030C4CBA
:1044B00004EB83010B893BB901230B810023C3600B
:1044C00003610860486009E00B895B1C0B810B6885
:1044D000C360002303610A681061086010BD00001A
:1044E0007001012010B590F8373003EB43030B4CFB
:1044F00004EB83010B893BB901230B810023C360CB
:1045000003610860486008E00B895B1C0B81002395
:10451000C3604A680261D060486010BD700101202C
:104520002DE9F041054695F8370000EB40001249AF
:1045300001EB80042F69EE6887B946B9002020811D
:104540002060606095F83700FFF7C0FE0EE020891C
:10455000401E208100203061266007E02089401E37
:104560002081FE600EB9676000E03761002028619D
:10457000E860BDE8F08100007001012010B5002462
:1045800000BFFBF711FE044600BF00200C49087075
:104590000C480D49086008460068D0F89000401C9F
:1045A0000968C1F8900009480068401C0749086084
:1045B000FBF795FE00BF2046FBF7FAFD00BF10BDDC
:1045C000F3000020A4000120500100202001002061
:1045D0000021034A1160034A1180018070470000E6
:1045E00000010020040100202DE9FF5F04468846F9
:1045F00091461D460020019000BF00BFFBF7D4FD8F
:10460000019000BF00BF04F10807388900284FD18E
:104610000420012804D0022814D0042834D123E037
:10462000206AFF280DD100BF00BF0198FBF7C0FD35
:1046300000BF00BF46F6C5502880002004B0BDE88A
:10464000F09F22E04FF6FF71206A88420BD100BF35
:1046500000BF0198FBF7ACFD00BF00BF46F6C55098
:1046600028800020EAE710E0206A401C58B900BF0B
:1046700000BF0198FBF79CFD00BF00BF46F6C55088
:1046800028800020DAE700E000BF00BF206A401C5D
:104690002062D4F820A0C4F8249000BF00BF019885
:1046A000FBF786FD00BF00BF002028805046C5E70D
:1046B00000BF25480078401C2349087000BF00BF98
:1046C0000198FBF775FD00BF00BF00BF08F4007044
:1046D00008B13E8900E00126D7F800B011E0DBF810
:1046E00008000290DBF80400039000231A46CDF87E
:1046F000009020460299FFF741FDDDF80CB0701ED6
:1047000086B2002EEBD1D4F820A000BF00BF00BFBE
:10471000FBF74AFD019000BF00BF0B480078401E28
:104720000949087000BF00BF0198FBF741FD00BFB9
:1047300000BF00BF08F4004008B9FDF7B7FE002035
:10474000288050467AE70000FE00002086B0002056
:10475000009000BF06E0C3490968480001AA002193
:10476000FEF7B0FCC04800780128F4D101A8FDF79D
:10477000A1FF0027BD480068BA490968884205D9E9
:10478000BA480068B7490968B0FBF1F727B9B748DC
:1047900000680A21B0FBF1F762E1FCF7B3FD804647
:1047A00000BF00BFFBF700FD009000BF00BFB04896
:1047B0000068B04908600020AD49086000BF00BF34
:1047C0000098FBF7F5FC00BF00BFAB480068A949A3
:1047D0000968884248D9A8480068A849884205D293
:1047E00042F2107003900120029023E0A24800687A
:1047F000A349884205D24FF47A7003900A200290B0
:1048000018E09D4800689F49884203D264200390C5
:1048100002900FE0984800689B49884205D20A2020
:1048200003904FF47A70029004E00120039042F26A
:1048300010700290904801680298B1FBF0FA8D491F
:10484000039809684843B0FBFAF042F21071081A65
:104850008E4908808E4800880988884208DA8B488B
:1048600000888B49088003E042F210708749088075
:10487000FDF7B6FF002500BF00BFFBF795FC0090D9
:1048800000BF00BF8348046800BF00BF0098FBF76B
:104890008FFC00BF00BF5AE000BF00BF00BFFBF7A6
:1048A00083FC009000BF00BF7B480078401C7A4921
:1048B000087000BF00BF0098FBF77AFC00BF00BF84
:1048C00000BF54F89C0F6060002044F89C0900BFB2
:1048D00000BF00BFFBF768FC009000BF00BF6E4840
:1048E0000078401E6C49087008460078A0B96B48F3
:1048F0000088002809DD00BF00BF0098FBF758FCC6
:1049000000BF00BFFFF73AFE0DE000BF00BF0098F8
:10491000FBF74EFC00BF06E000BF00BF0098FBF7AE
:1049200047FC00BF00BF00BFD4F8A000054400BF93
:1049300000BFFBF739FC009000BF00BFD4F8B840BF
:1049400000BF00BF0098FBF733FC00BF00BF002C86
:10495000A2D145B34948854205D242F21070059074
:104960004FF0010B1BE04648854205D24FF47A70A8
:1049700005904FF00A0B12E04248854203D26420B2
:10498000059083460BE04048854204D20A200590FA
:104990004FF47A7B03E00120059042F2107BB5FBD7
:1049A000FBF0049003E0002005900120049000BF7C
:1049B00000BFFBF7F9FB009000BF00BF354804685B
:1049C00000BF00BF0098FBF7F3FB00BF00BF2BE068
:1049D000D4F8A000059948430499B0FBF1F086B2E1
:1049E00042F21070864200D90646A4F88C60B4F8F2
:1049F0008E00B04201DAA4F88E6001AB04F1AC0283
:104A0000111D2046FEF72AFA00BF00BFFBF7CCFBC2
:104A1000009000BF00BFD4F8B84000BF00BF0098AE
:104A2000FBF7C6FB00BF00BF002CD1D11C480078AB
:104A3000012805D100201A49087001A8FDF73AFEA7
:104A4000FCF760FCA0EB080916480068484502D254
:104A50001448C0F8009001AA00213846FEF732FB46
:104A60009BE60000B076000818010020C876000818
:104A70000C0100201401002010010020801A060003
:104A800000093D00005A62020084D7170801002087
:104A90000A01002024010020FE000020D000002098
:104AA000060100201C01002010B58AB00446002039
:104AB0001F4908601F4908601F4908601F490870A6
:104AC0001F4908701F48006820B946F62B602080F7
:104AD0000AB010BD1C4800681C490968884203D20E
:104AE00046F62C602080F3E7194800783F2803D36E
:104AF00046F62A602080EBE7032000210591CDE9EE
:104B000007040691084610490968124A12680D4BBD
:104B10001B68CDE90132CDE903100D480078002370
:104B20000D4A0EA100901248FDF764FE00BFCFE7CA
:104B30000C010020140100201001002018010020A9
:104B400006010020B4760008BC760008C476000890
:104B5000AC760008B87600084D47000875432F4F23
:104B6000532D4949492053746174205461736B007B
:104B70007004012038B504460D4685B16B4602220B
:104B80002946204600F09EFDBDF8000018B903201C
:104B900084F8360006E0022084F8360002E00220A5
:104BA00084F836002046FFF7BBFC38BD0021C0F872
:104BB000B4100949096819B90021C0F8B81007E014
:104BC00005490968C0F8B81003490968C1F8B4007C
:104BD000014908607047000024010020D0F8B4208B
:104BE000D0F8B8104AB90D4B196011B10023C1F8C3
:104BF000B4300023C0F8B8300FE029B90023C2F860
:104C0000B830C0F8B43008E0C2F8B810C1F8B42029
:104C10000023C0F8B830C0F8B43070472401002039
:104C20000021044A1160044A1180044A1160018085
:104C300070470000240100202801002020010020EE
:104C400070B5044600202060A0606060E0602061D4
:104C50006061A061E06129A0206200206062A06222
:104C6000E0622063E0872064E065A4F86000002132
:104C700004F16400FFF7F8F8002044F8740F606056
:104C8000E060A0822061743C002506E0002104F170
:104C90007C0040F82510681CC5B2002DF6D000201D
:104CA0003434206120676067606084F85600E067F4
:104CB000A06720814FF0004060610020A061E061AA
:104CC00020626062A4F85800A4F85A00E0652066EB
:104CD000FCF718FB064666660020A0662070607030
:104CE000A0704020E0700020C4F88000C4F8840068
:104CF00004A0C4F88800343C70BD00003F546173C8
:104D00006B000000200000002DE9FC4704460F4620
:104D100090469946DDE90A654FF0000A00BF00BFE2
:104D200000BFFBF741FA824600BF00BF764800781B
:104D3000401C7549087000BF00BF5046FBF738FAA9
:104D400000BF00BF00BF0CB9704804680020288075
:104D500094F8360008287DD2DFE800F004053E3FD5
:104D60000607404100BF00BF00BF4B4642463946E0
:104D700004F16400CDE90065FFF77EF800BF00BFD5
:104D800000BFFBF711FA824600BF00BF5E48007803
:104D9000401E5D49087008460078A0B95C4800884C
:104DA000002809DD00BF00BF5046FBF701FA00BF35
:104DB00000BFFFF7E3FB0DE000BF00BF5046FBF76D
:104DC000F7F900BF06E000BF00BF5046FBF7F0F95F
:104DD00000BF00BF00BF93E000BF00BF00BF94F85A
:104DE0003400022821D143463A462146002000964D
:104DF000FFF7C4F900BF00BF00BFFBF7D5F982463B
:104E000000BF00BF40480078401E3F49087000BF07
:104E100000BF5046FBF7CCF900BF00BF00BF09F44C
:104E2000004090BBFDF742FB38E04B464246394616
:104E300004F16400CDE90065FFF71EF800BF00BF74
:104E400000BFFBF7B1F9824600BF00BF2E480078D3
:104E5000401E00E023E02C49087008460078A8B9FD
:104E60002B480088002809DD00BF00BF5046FBF733
:104E70009FF900BF00BFFFF781FB0EE000BF00BF3E
:104E80005046FBF795F900BF07E007E000BF00BF01
:104E90005046FBF78DF900BF00BF00BF30E000BFF8
:104EA00000BF00BFFBF780F9824600BF00BF164875
:104EB0000078401E1449087008460078A0B91448CC
:104EC0000088002809DD00BF00BF5046FBF770F9DD
:104ED00000BF00BFFFF752FB0DE000BF00BF504610
:104EE000FBF766F900BF06E000BF00BF5046FBF7C6
:104EF0005FF900BF00BF00BF46F62D60288000BFED
:104F000000BFBDE8FC870000FE0000204C0100202F
:104F1000D000002010B50446204600F0B1FC94F803
:104F2000360000F0040010B92046FFF7A5FA10BDC6
:104F300070B504460D46002600BF00BFFBF734F9EC
:104F4000064600BF00BF0020288094F836000828DD
:104F50007BD2DFE800F0040506071243556700BF67
:104F600000BF00BF00BF00BF3046FBF721F900BF04
:104F700000BF47F25310288072E000BF3B48007822
:104F8000401C3A49087000BF00BF3046FBF710F9DB
:104F900000BF00BF00BF14F88A0F401E207014F835
:104FA0008A0928B9002084F836002046FFF7B2FFAE
:104FB00000BF00BF00BFFBF7F7F8064600BF00BF09
:104FC0002A480078401E2949087000BF00BF3046BB
:104FD000FBF7EEF800BF00BF00BF41E014F88A0FF6
:104FE000401E207014F88A0910B9012084F8360098
:104FF00000BF00BF3046FBF7DBF800BF00BF2FE06B
:1050000014F88A0F401E207014F88A0910B9022083
:1050100084F8360000BF00BF3046FBF7C9F800BF78
:1050200000BF1DE014F88A0F401E207014F88A0992
:1050300010B9032084F8360000BF00BF3046FBF7EC
:10504000B7F800BF00BF0BE0FFE700BF00BF30466E
:10505000FBF7AEF800BF00BF46F62D60288070BD9C
:1050600000BFFDF723FA00BFF9E70000FE000020B3
:1050700008B504480068FDF7DBFD69460020FDF730
:10508000E9FC08BD4C0100202DE9F84304468846A0
:1050900017461D464FF0000900BF00BF00BFFBF7D9
:1050A00083F8814600BF00BFFE480078401CFD49E0
:1050B000087000BF00BF4846FBF77AF800BF00BF8A
:1050C00000BF0CB9F848046827640020288094F8D1
:1050D0003600082871D2DFE800F00405EBEC060783
:1050E000EDEE00BF00BF00BF0420012804D002285D
:1050F00039D004286FD170E0606CFF2832D100BF36
:1051000000BF00BFFBF750F8814600BF00BFE54875
:105110000078401EE349087008460078A0B9E348CB
:105120000088002809DD00BF00BF4846FBF740F8B3
:1051300000BF00BFFFF722FA0DE000BF00BF4846E6
:10514000FBF736F800BF06E000BF00BF4846FBF79C
:105150002FF800BF00BF00BF46F6C55028800020D2
:10516000BDE8F88371E04FF6FF71606C884233D17F
:1051700000BF00BF00BFFBF717F8814600BF00BFAC
:10518000C8480078401EC749087008460078A8B98A
:10519000C6480088002809DD00BF00BF4846FBF76D
:1051A00007F800BF00BFFFF7E9F90EE000BF00BF3E
:1051B0004846FAF7FDFF00BF07E08DE100BF00BFE2
:1051C0004846FAF7F5FF00BF00BF00BF46F6C550DE
:1051D00028800020C4E737E037E0606C401C88BBC3
:1051E00000BF00BF00BFFAF7DFFF814600BF00BF6E
:1051F000AC480078401EAB49087008460078A0B95A
:10520000AA480088002809DD00BF00BF4846FAF719
:10521000CFFF00BF00BFFFF7B1F90DE000BF00BF37
:105220004846FAF7C5FF00BF06E000BF00BF48468A
:10523000FAF7BEFF00BF00BF00BF46F6C55028808A
:1052400000208DE7FFE700E000BF00BF606C401C5E
:105250006064666C00BF00BF00BFFAF7A5FF81461F
:1052600000BF00BF8F480078401E8E490870084676
:105270000078A0B98D480088002809DD00BF00BF74
:105280004846FAF795FF00BF00BFFFF777F90DE03A
:1052900000BF00BF4846FAF78BFF00BF06E000BF23
:1052A00000BF4846FAF784FF00BF00BF00BF45E1DA
:1052B00000BF00BF00BF94F83400072823D10023AB
:1052C0001A46214618460097FEF758FF666C00BF45
:1052D00000BF00BFFAF768FF814600BF00BF7148FA
:1052E0000078401E6F49087000BF00BF4846FAF7BB
:1052F0005FFF00BF00BF00BF08F40040002801D1DD
:10530000FDF7D4F8E7E00420012804D0022838D0C3
:1053100004286ED16EE0606CFF2831D100BF00BF61
:1053200000BFFAF741FF814600BF00BF5D4800782B
:10533000401E5C49087008460078A0B95B480088A8
:10534000002809DD00BF00BF4846FAF731FF00BF63
:1053500000BFFFF713F90DE000BF00BF4846FAF7A2
:1053600027FF00BF06E000BF00BF4846FAF720FF56
:1053700000BF00BF00BF46F6C55028800020EFE602
:1053800070E04FF6FF71606C884231D100BF00BF02
:1053900000BFFAF709FF814600BF00BF414800780F
:1053A000401E4049087008460078A0B93F48008870
:1053B000002809DD00BF00BF4846FAF7F9FE00BF2C
:1053C00000BFFFF7DBF80DE000BF00BF4846FAF76B
:1053D000EFFE00BF06E000BF00BF4846FAF7E8FE58
:1053E00000BF00BF00BF46F6C55028800020B7E6CA
:1053F00038E036E0606C401C88BB00BF00BF00BFD7
:10540000FAF7D2FE814600BF00BF26480078401E52
:105410002449087008460078A0B92448008800286C
:1054200009DD00BF00BF4846FAF7C2FE00BF00BF5B
:10543000FFF7A4F80DE000BF00BF4846FAF7B8FE3A
:1054400000BF06E000BF00BF4846FAF7B1FE00BF4C
:1054500000BF00BF46F6C5502880002080E6FFE769
:1054600000E000BF00BF606C401C6064666C00BF61
:1054700000BF00BFFAF798FE814600BF00BF094891
:105480000078401E0749087008460078D8B90748D8
:105490000088002810DD00BF00BF4846FAF788FEEC
:1054A00000BF05E0FE0000204C010020D0000020DD
:1054B00000BFFFF763F80DE000BF00BF4846FAF7F2
:1054C00077FE00BF06E000BF00BF4846FAF770FE57
:1054D00000BF00BF00BF31E000BF00BF00BFFAF750
:1054E00063FE814600BF00BF16480078401E154984
:1054F000087008460078A0B913480088002809DD24
:1055000000BF00BF4846FAF753FE00BF00BFFFF7D9
:1055100035F80DE000BF00BF4846FAF749FE00BF6E
:1055200006E000BF00BF4846FAF742FE00BF00BFDA
:1055300000BF46F62D602880002600BF00BF304621
:105540000EE60000FE000020D000002070B50446EA
:105550000D46002600BF00BFFAF726FE064600BF34
:1055600000BF0CB94B4804684A48006884420ED119
:105570004948007800280ADD00BF00BF3046FAF72E
:1055800017FE00BF00BF46F66350288070BD0020A4
:10559000288094F8360008286CD2DFE800F0043147
:1055A0003F4D5B5C5D5E00BF3B480078401C3A4964
:1055B000087000BF00BF3046FAF7FAFD00BF00BF19
:1055C00000BF042084F83600012084F88A002046B9
:1055D000FEF7A6FF00BF00BF00BFFAF7E5FD0646D5
:1055E00000BF00BF2C480078401E2B49087000BF48
:1055F00000BF3046FAF7DCFD00BF00BF00BF44E04B
:10560000052084F83600012084F88A0000BF00BF1E
:105610003046FAF7CDFD00BF00BF36E0062084F823
:105620003600012084F88A0000BF00BF3046FAF738
:10563000BFFD00BF00BF28E0072084F8360001202E
:1056400084F88A0000BF00BF3046FAF7B1FD00BF02
:1056500000BF1AE000BF00BF00BF94F88A00401CE2
:1056600084F88A0000BF00BF3046FAF7A1FD00BFF2
:1056700000BF0AE000BF00BF3046FAF799FD00BF47
:1056800000BF46F62D60288080E700BFFCF70EFFC4
:1056900000BF7BE74C010020FE000020002108E055
:1056A000064A02EBC100002202608280C2804A1CCE
:1056B00091B2034A12889142F2DB7047DCFC002071
:1056C000E07600082DE9F04F0C4616461D46042EE4
:1056D0001ED1DFF8A091D9F80090A4EB0909A9F137
:1056E000010313F5803F0DD94FF00009C0F84C902D
:1056F000C0F85090C0F81C9047F27E29A5F80090A1
:10570000BDE8F08FC46403F10109C0F850903FE098
:1057100084B3082E25D1D0F8489009EB0407DFF8B0
:105720005491D9F80090A7EB0909A9F10103A3420C
:1057300001D2C76406E0DFF83C91D9F80090A1449B
:10574000C0F84C90DFF82CA1D0F84C90DAF800A00B
:10575000A9EB0A09C0F85090D0F84C90C0F84890D6
:1057600016E0DFF81091D9F80090A144C0F84C90F1
:1057700004650DE0FFE74FF00009C0F84C90C0F859
:105780005090C0F81C9047F27E29A5F80090B7E72A
:10579000DFF8E4A0BAF800A0D0F84C90B9FBFAFB0F
:1057A0000AFB1B991FFA89F8DFF8D09009EBC802B1
:1057B000B2F80490B9F1000F0BD14FF00009C0F816
:1057C0001490C0F8189010604FF00109A2F80490EE
:1057D0003EE0116834E0DFF89CA0D1F84C90DAF894
:1057E00000A0A9EB0A09C1F85090D0F85090D1F868
:1057F00050A0D1450ED9D1F81490B9F1000F01D0C5
:1058000049691DE04FF00009C0F8149081614861BA
:10581000002115E0D1F81890B9F1000F07D14FF031
:105820000009C0F8189041618861106007E0D1F864
:1058300018C0C0F818C04161CCF81400886100217C
:105840000029C8D1B2F8049009F10109A2F8049026
:10585000B2F80690B2F804A0D14503DAB2F8049089
:10586000A2F80690C2614FF00009A5F8009000BFB1
:1058700046E700002C010020E0760008DCFC002058
:1058800010B5C269BAB1002404651468844205D118
:105890004169116039B100248C6104E08169436978
:1058A0004B6103B19961002444618461C461C464A3
:1058B0009488641E948010BD002006E0054A02EB27
:1058C000C0010022CA80421C90B2034A1288904252
:1058D000F4DB7047DCFC0020E07600082DE9F05F87
:1058E0004FF0000B00BF00BF00BFFAF75DFC83461E
:1058F00000BF00BF71480078401C7049087000BFAD
:1059000000BF5846FAF754FC00BF00BF00BFFBF7CA
:10591000F9FC05466A480068401C69490860084669
:10592000006868490988B0FBF1F201FB12001FFA18
:1059300080FA654800EBCA08D8F80040002782E0EA
:10594000002C7FD0D4F8149094F83600082875D233
:10595000DFE800F00408051B063D075000BF00BF4C
:1059600000BF6CE05649E06C0968401A2065544954
:10597000E06C0968884206D1002084F83600204691
:10598000FFF7C8FA00E0012759E04D49E06C0968CB
:10599000401A20654A49E06C0968884215D1002008
:1059A000E065A4F86000FBF7ADFC20642046FEF73C
:1059B000ACFB2046FFF7AEFA00203434A070032081
:1059C0006070002004F8340900E0012737E03C490A
:1059D000E06C0968401A20653949E06C0968884222
:1059E00006D1042084F836002046FFF749FF00E086
:1059F000012724E03249E06C0968401A20653049EB
:105A0000E06C0968884217D10020E065A4F86000C6
:105A1000FBF778FC20642046FEF777FB2046FFF773
:105A20002FFF04203434A07003206070002004F89D
:105A3000340902E006E001E0012700E000BF00BFFA
:105A40004C4600E00127002F3FF47AAFFBF75AFCE9
:105A5000461B1E480068B04201D21C48066000BFC9
:105A600000BF00BFFAF7A0FB834600BF00BF13488A
:105A70000078401E1149087008460078A0B9144803
:105A80000088002809DD00BF00BF5846FAF790FBE8
:105A900000BF00BFFEF772FD0DE000BF00BF58461B
:105AA000FAF786FB00BF06E000BF00BF5846FAF7D2
:105AB0007FFB00BF00BF00BFBDE8F09FFE000020DD
:105AC0002C010020E0760008DCFC002030010020E2
:105AD000D00000201CB500BF0EE001AB6A460021DB
